{"abi":[{"type":"constructor","inputs":[{"name":"entranceFee","type":"uint256","internalType":"uint256"},{"name":"interval","type":"uint256","internalType":"uint256"},{"name":"vrfCoordinator","type":"address","internalType":"address"},{"name":"gasLane","type":"bytes32","internalType":"bytes32"},{"name":"subscriptionId","type":"uint256","internalType":"uint256"},{"name":"callbackGasLimit","type":"uint32","internalType":"uint32"}],"stateMutability":"nonpayable"},{"type":"function","name":"acceptOwnership","inputs":[],"outputs":[],"stateMutability":"nonpayable"},{"type":"function","name":"checkUpkeep","inputs":[{"name":"","type":"bytes","internalType":"bytes"}],"outputs":[{"name":"upkeepNeeded","type":"bool","internalType":"bool"},{"name":"","type":"bytes","internalType":"bytes"}],"stateMutability":"view"},{"type":"function","name":"enterRaffle","inputs":[],"outputs":[],"stateMutability":"payable"},{"type":"function","name":"getEnteranceFee","inputs":[],"outputs":[{"name":"","type":"uint256","internalType":"uint256"}],"stateMutability":"view"},{"type":"function","name":"getPlayers","inputs":[{"name":"indexOfPlayer","type":"uint256","internalType":"uint256"}],"outputs":[{"name":"","type":"address","internalType":"address"}],"stateMutability":"view"},{"type":"function","name":"getRaffleState","inputs":[],"outputs":[{"name":"","type":"uint8","internalType":"enum Raffle.RaffleState"}],"stateMutability":"view"},{"type":"function","name":"owner","inputs":[],"outputs":[{"name":"","type":"address","internalType":"address"}],"stateMutability":"view"},{"type":"function","name":"performUpkeep","inputs":[{"name":"","type":"bytes","internalType":"bytes"}],"outputs":[],"stateMutability":"nonpayable"},{"type":"function","name":"rawFulfillRandomWords","inputs":[{"name":"requestId","type":"uint256","internalType":"uint256"},{"name":"randomWords","type":"uint256[]","internalType":"uint256[]"}],"outputs":[],"stateMutability":"nonpayable"},{"type":"function","name":"s_vrfCoordinator","inputs":[],"outputs":[{"name":"","type":"address","internalType":"contract IVRFCoordinatorV2Plus"}],"stateMutability":"view"},{"type":"function","name":"setCoordinator","inputs":[{"name":"_vrfCoordinator","type":"address","internalType":"address"}],"outputs":[],"stateMutability":"nonpayable"},{"type":"function","name":"transferOwnership","inputs":[{"name":"to","type":"address","internalType":"address"}],"outputs":[],"stateMutability":"nonpayable"},{"type":"event","name":"CoordinatorSet","inputs":[{"name":"vrfCoordinator","type":"address","indexed":false,"internalType":"address"}],"anonymous":false},{"type":"event","name":"EnteredRaffle","inputs":[{"name":"player","type":"address","indexed":true,"internalType":"address"}],"anonymous":false},{"type":"event","name":"OwnershipTransferRequested","inputs":[{"name":"from","type":"address","indexed":true,"internalType":"address"},{"name":"to","type":"address","indexed":true,"internalType":"address"}],"anonymous":false},{"type":"event","name":"OwnershipTransferred","inputs":[{"name":"from","type":"address","indexed":true,"internalType":"address"},{"name":"to","type":"address","indexed":true,"internalType":"address"}],"anonymous":false},{"type":"event","name":"WinnerPicked","inputs":[{"name":"winner","type":"address","indexed":true,"internalType":"address"}],"anonymous":false},{"type":"error","name":"OnlyCoordinatorCanFulfill","inputs":[{"name":"have","type":"address","internalType":"address"},{"name":"want","type":"address","internalType":"address"}]},{"type":"error","name":"OnlyOwnerOrCoordinator","inputs":[{"name":"have","type":"address","internalType":"address"},{"name":"owner","type":"address","internalType":"address"},{"name":"coordinator","type":"address","internalType":"address"}]},{"type":"error","name":"Raffle__NotEnoughEthSent","inputs":[]},{"type":"error","name":"Raffle__RaffleNotOpen","inputs":[]},{"type":"error","name":"Raffle__TransferFailed","inputs":[]},{"type":"error","name":"Raffle__upkeepNeeded","inputs":[{"name":"balance","type":"uint256","internalType":"uint256"},{"name":"playersLength","type":"uint256","internalType":"uint256"},{"name":"state","type":"uint256","internalType":"uint256"}]},{"type":"error","name":"ZeroAddress","inputs":[]}],"bytecode":{"object":"0x6101206040523480156200001257600080fd5b506040516200233d3803806200233d8339818101604052810190620000389190620004a7565b83338060008073ffffffffffffffffffffffffffffffffffffffff168273ffffffffffffffffffffffffffffffffffffffff1603620000ae576040517f08c379a0000000000000000000000000000000000000000000000000000000008152600401620000a590620005a4565b60405180910390fd5b816000806101000a81548173ffffffffffffffffffffffffffffffffffffffff021916908373ffffffffffffffffffffffffffffffffffffffff160217905550600073ffffffffffffffffffffffffffffffffffffffff168173ffffffffffffffffffffffffffffffffffffffff1614620001355762000134816200025760201b60201c565b5b505050600073ffffffffffffffffffffffffffffffffffffffff168173ffffffffffffffffffffffffffffffffffffffff16036200019f576040517fd92e233d00000000000000000000000000000000000000000000000000000000815260040160405180910390fd5b80600260006101000a81548173ffffffffffffffffffffffffffffffffffffffff021916908373ffffffffffffffffffffffffffffffffffffffff1602179055505085608081815250508460a081815250508260c081815250508160e081815250508063ffffffff166101008163ffffffff1681525050426004819055506000600560146101000a81548160ff02191690836001811115620002465762000245620005c6565b5b021790555050505050505062000667565b3373ffffffffffffffffffffffffffffffffffffffff168173ffffffffffffffffffffffffffffffffffffffff1603620002c8576040517f08c379a0000000000000000000000000000000000000000000000000000000008152600401620002bf9062000645565b60405180910390fd5b80600160006101000a81548173ffffffffffffffffffffffffffffffffffffffff021916908373ffffffffffffffffffffffffffffffffffffffff1602179055508073ffffffffffffffffffffffffffffffffffffffff1660008054906101000a900473ffffffffffffffffffffffffffffffffffffffff1673ffffffffffffffffffffffffffffffffffffffff167fed8889f560326eb138920d842192f0eb3dd22b4f139c87a2c57538e05bae127860405160405180910390a350565b600080fd5b6000819050919050565b620003a0816200038b565b8114620003ac57600080fd5b50565b600081519050620003c08162000395565b92915050565b600073ffffffffffffffffffffffffffffffffffffffff82169050919050565b6000620003f382620003c6565b9050919050565b6200040581620003e6565b81146200041157600080fd5b50565b6000815190506200042581620003fa565b92915050565b6000819050919050565b62000440816200042b565b81146200044c57600080fd5b50565b600081519050620004608162000435565b92915050565b600063ffffffff82169050919050565b620004818162000466565b81146200048d57600080fd5b50565b600081519050620004a18162000476565b92915050565b60008060008060008060c08789031215620004c757620004c662000386565b5b6000620004d789828a01620003af565b9650506020620004ea89828a01620003af565b9550506040620004fd89828a0162000414565b94505060606200051089828a016200044f565b93505060806200052389828a01620003af565b92505060a06200053689828a0162000490565b9150509295509295509295565b600082825260208201905092915050565b7f43616e6e6f7420736574206f776e657220746f207a65726f0000000000000000600082015250565b60006200058c60188362000543565b9150620005998262000554565b602082019050919050565b60006020820190508181036000830152620005bf816200057d565b9050919050565b7f4e487b7100000000000000000000000000000000000000000000000000000000600052602160045260246000fd5b7f43616e6e6f74207472616e7366657220746f2073656c66000000000000000000600082015250565b60006200062d60178362000543565b91506200063a82620005f5565b602082019050919050565b6000602082019050818103600083015262000660816200061e565b9050919050565b60805160a05160c05160e05161010051611c8a620006b360003960006105fd015260006105cc015260006105a60152600061077001526000818161037701526107440152611c8a6000f3fe6080604052600436106100a75760003560e01c80636e04ff0d116100645780636e04ff0d1461019b57806379ba5097146101d95780638da5cb5b146101f05780638ea981171461021b5780639eccacf614610244578063f2fde38b1461026f576100a7565b8063115cbaf5146100ac5780631fe543e3146100d75780632cfcc539146101005780634585e33b1461010a578063460e204914610133578063535bf50f14610170575b600080fd5b3480156100b857600080fd5b506100c1610298565b6040516100ce91906111a8565b60405180910390f35b3480156100e357600080fd5b506100fe60048036038101906100f99190611272565b6102af565b005b610108610375565b005b34801561011657600080fd5b50610131600480360381019061012c9190611328565b6104e3565b005b34801561013f57600080fd5b5061015a60048036038101906101559190611375565b6106f8565b60405161016791906113e3565b60405180910390f35b34801561017c57600080fd5b50610185610740565b604051610192919061140d565b60405180910390f35b3480156101a757600080fd5b506101c260048036038101906101bd9190611569565b610768565b6040516101d092919061164c565b60405180910390f35b3480156101e557600080fd5b506101ee61082a565b005b3480156101fc57600080fd5b506102056109bf565b60405161021291906113e3565b60405180910390f35b34801561022757600080fd5b50610242600480360381019061023d91906116a8565b6109e8565b005b34801561025057600080fd5b50610259610bc9565b6040516102669190611734565b60405180910390f35b34801561027b57600080fd5b50610296600480360381019061029191906116a8565b610bef565b005b6000600560149054906101000a900460ff16905090565b600260009054906101000a900473ffffffffffffffffffffffffffffffffffffffff1673ffffffffffffffffffffffffffffffffffffffff163373ffffffffffffffffffffffffffffffffffffffff16146103655733600260009054906101000a900473ffffffffffffffffffffffffffffffffffffffff166040517f1cf993f400000000000000000000000000000000000000000000000000000000815260040161035c92919061174f565b60405180910390fd5b610370838383610c03565b505050565b7f00000000000000000000000000000000000000000000000000000000000000003410156103cf576040517f246b904d00000000000000000000000000000000000000000000000000000000815260040160405180910390fd5b6001808111156103e2576103e1611131565b5b600560149054906101000a900460ff16600181111561040457610403611131565b5b0361043b576040517fd24a271400000000000000000000000000000000000000000000000000000000815260040160405180910390fd5b6003339080600181540180825580915050600190039060005260206000200160009091909190916101000a81548173ffffffffffffffffffffffffffffffffffffffff021916908373ffffffffffffffffffffffffffffffffffffffff1602179055503373ffffffffffffffffffffffffffffffffffffffff167f819fbd717c9d0b421352c5116a644ca68ba176960c33f406f08d98a27370ca2760405160405180910390a2565b60006104fd60405180602001604052806000815250610768565b5090508061056c5747600380549050600560149054906101000a900460ff16600181111561052e5761052d611131565b5b6040517f6554f71f00000000000000000000000000000000000000000000000000000000815260040161056393929190611778565b60405180910390fd5b6001600560146101000a81548160ff0219169083600181111561059257610591611131565b5b021790555060006040518060c001604052807f000000000000000000000000000000000000000000000000000000000000000081526020017f00000000000000000000000000000000000000000000000000000000000000008152602001600361ffff1681526020017f000000000000000000000000000000000000000000000000000000000000000063ffffffff168152602001600163ffffffff16815260200161064e604051806020016040528060001515815250610e36565b8152509050600260009054906101000a900473ffffffffffffffffffffffffffffffffffffffff1673ffffffffffffffffffffffffffffffffffffffff16639b1c385e826040518263ffffffff1660e01b81526004016106ae91906118e6565b6020604051808303816000875af11580156106cd573d6000803e3d6000fd5b505050506040513d601f19601f820116820180604052508101906106f1919061191d565b5050505050565b60006003828154811061070e5761070d61194a565b5b9060005260206000200160009054906101000a900473ffffffffffffffffffffffffffffffffffffffff169050919050565b60007f0000000000000000000000000000000000000000000000000000000000000000905090565b6000606060007f00000000000000000000000000000000000000000000000000000000000000006004544261079d91906119a8565b1015905060008060018111156107b6576107b5611131565b5b600560149054906101000a900460ff1660018111156107d8576107d7611131565b5b149050600080471190506000806003805490501190508380156107f85750825b80156108015750815b801561080a5750805b955085604051806020016040528060008152509550955050505050915091565b600160009054906101000a900473ffffffffffffffffffffffffffffffffffffffff1673ffffffffffffffffffffffffffffffffffffffff163373ffffffffffffffffffffffffffffffffffffffff16146108ba576040517f08c379a00000000000000000000000000000000000000000000000000000000081526004016108b190611a39565b60405180910390fd5b60008060009054906101000a900473ffffffffffffffffffffffffffffffffffffffff169050336000806101000a81548173ffffffffffffffffffffffffffffffffffffffff021916908373ffffffffffffffffffffffffffffffffffffffff1602179055506000600160006101000a81548173ffffffffffffffffffffffffffffffffffffffff021916908373ffffffffffffffffffffffffffffffffffffffff1602179055503373ffffffffffffffffffffffffffffffffffffffff168173ffffffffffffffffffffffffffffffffffffffff167f8be0079c531659141344cd1fd0a4f28419497f9722a3daafe3b4186f6b6457e060405160405180910390a350565b60008060009054906101000a900473ffffffffffffffffffffffffffffffffffffffff16905090565b6109f06109bf565b73ffffffffffffffffffffffffffffffffffffffff163373ffffffffffffffffffffffffffffffffffffffff1614158015610a795750600260009054906101000a900473ffffffffffffffffffffffffffffffffffffffff1673ffffffffffffffffffffffffffffffffffffffff163373ffffffffffffffffffffffffffffffffffffffff1614155b15610ae85733610a876109bf565b600260009054906101000a900473ffffffffffffffffffffffffffffffffffffffff166040517f061db9c1000000000000000000000000000000000000000000000000000000008152600401610adf93929190611a59565b60405180910390fd5b600073ffffffffffffffffffffffffffffffffffffffff168173ffffffffffffffffffffffffffffffffffffffff1603610b4e576040517fd92e233d00000000000000000000000000000000000000000000000000000000815260040160405180910390fd5b80600260006101000a81548173ffffffffffffffffffffffffffffffffffffffff021916908373ffffffffffffffffffffffffffffffffffffffff1602179055507fd1a6a14209a385a964d036e404cb5cfb71f4000cdb03c9366292430787261be681604051610bbe91906113e3565b60405180910390a150565b600260009054906101000a900473ffffffffffffffffffffffffffffffffffffffff1681565b610bf7610ece565b610c0081610f5e565b50565b600060038054905083836000818110610c1f57610c1e61194a565b5b90506020020135610c309190611abf565b9050600060038281548110610c4857610c4761194a565b5b9060005260206000200160009054906101000a900473ffffffffffffffffffffffffffffffffffffffff16905080600560006101000a81548173ffffffffffffffffffffffffffffffffffffffff021916908373ffffffffffffffffffffffffffffffffffffffff1602179055506000600560146101000a81548160ff02191690836001811115610cdc57610cdb611131565b5b0217905550600067ffffffffffffffff811115610cfc57610cfb61143e565b5b604051908082528060200260200182016040528015610d2a5781602001602082028036833780820191505090505b5060039080519060200190610d4092919061108a565b50426004819055508073ffffffffffffffffffffffffffffffffffffffff167f5b690ec4a06fe979403046eaeea5b3ce38524683c3001f662c8b5a829632f7df60405160405180910390a260008173ffffffffffffffffffffffffffffffffffffffff1647604051610db190611b21565b60006040518083038185875af1925050503d8060008114610dee576040519150601f19603f3d011682016040523d82523d6000602084013e610df3565b606091505b5050905080610e2e576040517fa1d04b3900000000000000000000000000000000000000000000000000000000815260040160405180910390fd5b505050505050565b60607f92fd13387c7fe7befbc38d303d6468778fb9731bc4583f17d92989c6fcfdeaaa82604051602401610e6a9190611b61565b604051602081830303815290604052907bffffffffffffffffffffffffffffffffffffffffffffffffffffffff19166020820180517bffffffffffffffffffffffffffffffffffffffffffffffffffffffff83818316178352505050509050919050565b60008054906101000a900473ffffffffffffffffffffffffffffffffffffffff1673ffffffffffffffffffffffffffffffffffffffff163373ffffffffffffffffffffffffffffffffffffffff1614610f5c576040517f08c379a0000000000000000000000000000000000000000000000000000000008152600401610f5390611bc8565b60405180910390fd5b565b3373ffffffffffffffffffffffffffffffffffffffff168173ffffffffffffffffffffffffffffffffffffffff1603610fcc576040517f08c379a0000000000000000000000000000000000000000000000000000000008152600401610fc390611c34565b60405180910390fd5b80600160006101000a81548173ffffffffffffffffffffffffffffffffffffffff021916908373ffffffffffffffffffffffffffffffffffffffff1602179055508073ffffffffffffffffffffffffffffffffffffffff1660008054906101000a900473ffffffffffffffffffffffffffffffffffffffff1673ffffffffffffffffffffffffffffffffffffffff167fed8889f560326eb138920d842192f0eb3dd22b4f139c87a2c57538e05bae127860405160405180910390a350565b828054828255906000526020600020908101928215611103579160200282015b828111156111025782518260006101000a81548173ffffffffffffffffffffffffffffffffffffffff021916908373ffffffffffffffffffffffffffffffffffffffff160217905550916020019190600101906110aa565b5b5090506111109190611114565b5090565b5b8082111561112d576000816000905550600101611115565b5090565b7f4e487b7100000000000000000000000000000000000000000000000000000000600052602160045260246000fd5b6002811061117157611170611131565b5b50565b600081905061118282611160565b919050565b600061119282611174565b9050919050565b6111a281611187565b82525050565b60006020820190506111bd6000830184611199565b92915050565b6000604051905090565b600080fd5b600080fd5b6000819050919050565b6111ea816111d7565b81146111f557600080fd5b50565b600081359050611207816111e1565b92915050565b600080fd5b600080fd5b600080fd5b60008083601f8401126112325761123161120d565b5b8235905067ffffffffffffffff81111561124f5761124e611212565b5b60208301915083602082028301111561126b5761126a611217565b5b9250929050565b60008060006040848603121561128b5761128a6111cd565b5b6000611299868287016111f8565b935050602084013567ffffffffffffffff8111156112ba576112b96111d2565b5b6112c68682870161121c565b92509250509250925092565b60008083601f8401126112e8576112e761120d565b5b8235905067ffffffffffffffff81111561130557611304611212565b5b60208301915083600182028301111561132157611320611217565b5b9250929050565b6000806020838503121561133f5761133e6111cd565b5b600083013567ffffffffffffffff81111561135d5761135c6111d2565b5b611369858286016112d2565b92509250509250929050565b60006020828403121561138b5761138a6111cd565b5b6000611399848285016111f8565b91505092915050565b600073ffffffffffffffffffffffffffffffffffffffff82169050919050565b60006113cd826113a2565b9050919050565b6113dd816113c2565b82525050565b60006020820190506113f860008301846113d4565b92915050565b611407816111d7565b82525050565b600060208201905061142260008301846113fe565b92915050565b600080fd5b6000601f19601f8301169050919050565b7f4e487b7100000000000000000000000000000000000000000000000000000000600052604160045260246000fd5b6114768261142d565b810181811067ffffffffffffffff821117156114955761149461143e565b5b80604052505050565b60006114a86111c3565b90506114b4828261146d565b919050565b600067ffffffffffffffff8211156114d4576114d361143e565b5b6114dd8261142d565b9050602081019050919050565b82818337600083830152505050565b600061150c611507846114b9565b61149e565b90508281526020810184848401111561152857611527611428565b5b6115338482856114ea565b509392505050565b600082601f8301126115505761154f61120d565b5b81356115608482602086016114f9565b91505092915050565b60006020828403121561157f5761157e6111cd565b5b600082013567ffffffffffffffff81111561159d5761159c6111d2565b5b6115a98482850161153b565b91505092915050565b60008115159050919050565b6115c7816115b2565b82525050565b600081519050919050565b600082825260208201905092915050565b60005b838110156116075780820151818401526020810190506115ec565b60008484015250505050565b600061161e826115cd565b61162881856115d8565b93506116388185602086016115e9565b6116418161142d565b840191505092915050565b600060408201905061166160008301856115be565b81810360208301526116738184611613565b90509392505050565b611685816113c2565b811461169057600080fd5b50565b6000813590506116a28161167c565b92915050565b6000602082840312156116be576116bd6111cd565b5b60006116cc84828501611693565b91505092915050565b6000819050919050565b60006116fa6116f56116f0846113a2565b6116d5565b6113a2565b9050919050565b600061170c826116df565b9050919050565b600061171e82611701565b9050919050565b61172e81611713565b82525050565b60006020820190506117496000830184611725565b92915050565b600060408201905061176460008301856113d4565b61177160208301846113d4565b9392505050565b600060608201905061178d60008301866113fe565b61179a60208301856113fe565b6117a760408301846113fe565b949350505050565b6000819050919050565b6117c2816117af565b82525050565b6117d1816111d7565b82525050565b600061ffff82169050919050565b6117ee816117d7565b82525050565b600063ffffffff82169050919050565b61180d816117f4565b82525050565b600082825260208201905092915050565b600061182f826115cd565b6118398185611813565b93506118498185602086016115e9565b6118528161142d565b840191505092915050565b600060c08301600083015161187560008601826117b9565b50602083015161188860208601826117c8565b50604083015161189b60408601826117e5565b5060608301516118ae6060860182611804565b5060808301516118c16080860182611804565b5060a083015184820360a08601526118d98282611824565b9150508091505092915050565b60006020820190508181036000830152611900818461185d565b905092915050565b600081519050611917816111e1565b92915050565b600060208284031215611933576119326111cd565b5b600061194184828501611908565b91505092915050565b7f4e487b7100000000000000000000000000000000000000000000000000000000600052603260045260246000fd5b7f4e487b7100000000000000000000000000000000000000000000000000000000600052601160045260246000fd5b60006119b3826111d7565b91506119be836111d7565b92508282039050818111156119d6576119d5611979565b5b92915050565b600082825260208201905092915050565b7f4d7573742062652070726f706f736564206f776e657200000000000000000000600082015250565b6000611a236016836119dc565b9150611a2e826119ed565b602082019050919050565b60006020820190508181036000830152611a5281611a16565b9050919050565b6000606082019050611a6e60008301866113d4565b611a7b60208301856113d4565b611a8860408301846113d4565b949350505050565b7f4e487b7100000000000000000000000000000000000000000000000000000000600052601260045260246000fd5b6000611aca826111d7565b9150611ad5836111d7565b925082611ae557611ae4611a90565b5b828206905092915050565b600081905092915050565b50565b6000611b0b600083611af0565b9150611b1682611afb565b600082019050919050565b6000611b2c82611afe565b9150819050919050565b611b3f816115b2565b82525050565b602082016000820151611b5b6000850182611b36565b50505050565b6000602082019050611b766000830184611b45565b92915050565b7f4f6e6c792063616c6c61626c65206279206f776e657200000000000000000000600082015250565b6000611bb26016836119dc565b9150611bbd82611b7c565b602082019050919050565b60006020820190508181036000830152611be181611ba5565b9050919050565b7f43616e6e6f74207472616e7366657220746f2073656c66000000000000000000600082015250565b6000611c1e6017836119dc565b9150611c2982611be8565b602082019050919050565b60006020820190508181036000830152611c4d81611c11565b905091905056fea264697066735822122083635e760f663b63a2bc10ca7a57688c384db49f77374a9db70f82abecbb4b7164736f6c63430008130033","linkReferences":{}},"methodIdentifiers":{"acceptOwnership()":"79ba5097","checkUpkeep(bytes)":"6e04ff0d","enterRaffle()":"2cfcc539","getEnteranceFee()":"535bf50f","getPlayers(uint256)":"460e2049","getRaffleState()":"115cbaf5","owner()":"8da5cb5b","performUpkeep(bytes)":"4585e33b","rawFulfillRandomWords(uint256,uint256[])":"1fe543e3","s_vrfCoordinator()":"9eccacf6","setCoordinator(address)":"8ea98117","transferOwnership(address)":"f2fde38b"},"id":35}