{"abi":[{"type":"constructor","inputs":[{"name":"_baseFee","type":"uint96","internalType":"uint96"},{"name":"_gasPrice","type":"uint96","internalType":"uint96"},{"name":"_weiPerUnitLink","type":"int256","internalType":"int256"}],"stateMutability":"nonpayable"},{"type":"function","name":"LINK","inputs":[],"outputs":[{"name":"","type":"address","internalType":"contract LinkTokenInterface"}],"stateMutability":"view"},{"type":"function","name":"LINK_NATIVE_FEED","inputs":[],"outputs":[{"name":"","type":"address","internalType":"contract AggregatorV3Interface"}],"stateMutability":"view"},{"type":"function","name":"MAX_CONSUMERS","inputs":[],"outputs":[{"name":"","type":"uint16","internalType":"uint16"}],"stateMutability":"view"},{"type":"function","name":"acceptOwnership","inputs":[],"outputs":[],"stateMutability":"nonpayable"},{"type":"function","name":"acceptSubscriptionOwnerTransfer","inputs":[{"name":"subId","type":"uint256","internalType":"uint256"}],"outputs":[],"stateMutability":"nonpayable"},{"type":"function","name":"addConsumer","inputs":[{"name":"subId","type":"uint256","internalType":"uint256"},{"name":"consumer","type":"address","internalType":"address"}],"outputs":[],"stateMutability":"nonpayable"},{"type":"function","name":"cancelSubscription","inputs":[{"name":"_subId","type":"uint256","internalType":"uint256"},{"name":"_to","type":"address","internalType":"address"}],"outputs":[],"stateMutability":"nonpayable"},{"type":"function","name":"consumerIsAdded","inputs":[{"name":"_subId","type":"uint256","internalType":"uint256"},{"name":"_consumer","type":"address","internalType":"address"}],"outputs":[{"name":"","type":"bool","internalType":"bool"}],"stateMutability":"view"},{"type":"function","name":"createSubscription","inputs":[],"outputs":[{"name":"subId","type":"uint256","internalType":"uint256"}],"stateMutability":"nonpayable"},{"type":"function","name":"fulfillRandomWords","inputs":[{"name":"_requestId","type":"uint256","internalType":"uint256"},{"name":"_consumer","type":"address","internalType":"address"}],"outputs":[],"stateMutability":"nonpayable"},{"type":"function","name":"fulfillRandomWordsWithOverride","inputs":[{"name":"_requestId","type":"uint256","internalType":"uint256"},{"name":"_consumer","type":"address","internalType":"address"},{"name":"_words","type":"uint256[]","internalType":"uint256[]"}],"outputs":[],"stateMutability":"nonpayable"},{"type":"function","name":"fundSubscription","inputs":[{"name":"_subId","type":"uint256","internalType":"uint256"},{"name":"_amount","type":"uint256","internalType":"uint256"}],"outputs":[],"stateMutability":"nonpayable"},{"type":"function","name":"fundSubscriptionWithNative","inputs":[{"name":"subId","type":"uint256","internalType":"uint256"}],"outputs":[],"stateMutability":"payable"},{"type":"function","name":"getActiveSubscriptionIds","inputs":[{"name":"startIndex","type":"uint256","internalType":"uint256"},{"name":"maxCount","type":"uint256","internalType":"uint256"}],"outputs":[{"name":"ids","type":"uint256[]","internalType":"uint256[]"}],"stateMutability":"view"},{"type":"function","name":"getSubscription","inputs":[{"name":"subId","type":"uint256","internalType":"uint256"}],"outputs":[{"name":"balance","type":"uint96","internalType":"uint96"},{"name":"nativeBalance","type":"uint96","internalType":"uint96"},{"name":"reqCount","type":"uint64","internalType":"uint64"},{"name":"subOwner","type":"address","internalType":"address"},{"name":"consumers","type":"address[]","internalType":"address[]"}],"stateMutability":"view"},{"type":"function","name":"i_base_fee","inputs":[],"outputs":[{"name":"","type":"uint96","internalType":"uint96"}],"stateMutability":"view"},{"type":"function","name":"i_gas_price","inputs":[],"outputs":[{"name":"","type":"uint96","internalType":"uint96"}],"stateMutability":"view"},{"type":"function","name":"i_wei_per_unit_link","inputs":[],"outputs":[{"name":"","type":"int256","internalType":"int256"}],"stateMutability":"view"},{"type":"function","name":"onTokenTransfer","inputs":[{"name":"","type":"address","internalType":"address"},{"name":"amount","type":"uint256","internalType":"uint256"},{"name":"data","type":"bytes","internalType":"bytes"}],"outputs":[],"stateMutability":"nonpayable"},{"type":"function","name":"owner","inputs":[],"outputs":[{"name":"","type":"address","internalType":"address"}],"stateMutability":"view"},{"type":"function","name":"ownerCancelSubscription","inputs":[{"name":"subId","type":"uint256","internalType":"uint256"}],"outputs":[],"stateMutability":"nonpayable"},{"type":"function","name":"pendingRequestExists","inputs":[{"name":"","type":"uint256","internalType":"uint256"}],"outputs":[{"name":"","type":"bool","internalType":"bool"}],"stateMutability":"pure"},{"type":"function","name":"recoverFunds","inputs":[{"name":"to","type":"address","internalType":"address"}],"outputs":[],"stateMutability":"nonpayable"},{"type":"function","name":"recoverNativeFunds","inputs":[{"name":"to","type":"address","internalType":"address payable"}],"outputs":[],"stateMutability":"nonpayable"},{"type":"function","name":"removeConsumer","inputs":[{"name":"_subId","type":"uint256","internalType":"uint256"},{"name":"_consumer","type":"address","internalType":"address"}],"outputs":[],"stateMutability":"nonpayable"},{"type":"function","name":"requestRandomWords","inputs":[{"name":"_req","type":"tuple","internalType":"struct VRFV2PlusClient.RandomWordsRequest","components":[{"name":"keyHash","type":"bytes32","internalType":"bytes32"},{"name":"subId","type":"uint256","internalType":"uint256"},{"name":"requestConfirmations","type":"uint16","internalType":"uint16"},{"name":"callbackGasLimit","type":"uint32","internalType":"uint32"},{"name":"numWords","type":"uint32","internalType":"uint32"},{"name":"extraArgs","type":"bytes","internalType":"bytes"}]}],"outputs":[{"name":"","type":"uint256","internalType":"uint256"}],"stateMutability":"nonpayable"},{"type":"function","name":"requestSubscriptionOwnerTransfer","inputs":[{"name":"subId","type":"uint256","internalType":"uint256"},{"name":"newOwner","type":"address","internalType":"address"}],"outputs":[],"stateMutability":"nonpayable"},{"type":"function","name":"s_config","inputs":[],"outputs":[{"name":"minimumRequestConfirmations","type":"uint16","internalType":"uint16"},{"name":"maxGasLimit","type":"uint32","internalType":"uint32"},{"name":"reentrancyLock","type":"bool","internalType":"bool"},{"name":"stalenessSeconds","type":"uint32","internalType":"uint32"},{"name":"gasAfterPaymentCalculation","type":"uint32","internalType":"uint32"},{"name":"fulfillmentFlatFeeNativePPM","type":"uint32","internalType":"uint32"},{"name":"fulfillmentFlatFeeLinkDiscountPPM","type":"uint32","internalType":"uint32"},{"name":"nativePremiumPercentage","type":"uint8","internalType":"uint8"},{"name":"linkPremiumPercentage","type":"uint8","internalType":"uint8"}],"stateMutability":"view"},{"type":"function","name":"s_currentSubNonce","inputs":[],"outputs":[{"name":"","type":"uint64","internalType":"uint64"}],"stateMutability":"view"},{"type":"function","name":"s_totalBalance","inputs":[],"outputs":[{"name":"","type":"uint96","internalType":"uint96"}],"stateMutability":"view"},{"type":"function","name":"s_totalNativeBalance","inputs":[],"outputs":[{"name":"","type":"uint96","internalType":"uint96"}],"stateMutability":"view"},{"type":"function","name":"setConfig","inputs":[],"outputs":[],"stateMutability":"nonpayable"},{"type":"function","name":"setLINKAndLINKNativeFeed","inputs":[{"name":"link","type":"address","internalType":"address"},{"name":"linkNativeFeed","type":"address","internalType":"address"}],"outputs":[],"stateMutability":"nonpayable"},{"type":"function","name":"transferOwnership","inputs":[{"name":"to","type":"address","internalType":"address"}],"outputs":[],"stateMutability":"nonpayable"},{"type":"function","name":"withdraw","inputs":[{"name":"recipient","type":"address","internalType":"address"}],"outputs":[],"stateMutability":"nonpayable"},{"type":"function","name":"withdrawNative","inputs":[{"name":"recipient","type":"address","internalType":"address payable"}],"outputs":[],"stateMutability":"nonpayable"},{"type":"event","name":"ConfigSet","inputs":[],"anonymous":false},{"type":"event","name":"FundsRecovered","inputs":[{"name":"to","type":"address","indexed":false,"internalType":"address"},{"name":"amount","type":"uint256","indexed":false,"internalType":"uint256"}],"anonymous":false},{"type":"event","name":"NativeFundsRecovered","inputs":[{"name":"to","type":"address","indexed":false,"internalType":"address"},{"name":"amount","type":"uint256","indexed":false,"internalType":"uint256"}],"anonymous":false},{"type":"event","name":"OwnershipTransferRequested","inputs":[{"name":"from","type":"address","indexed":true,"internalType":"address"},{"name":"to","type":"address","indexed":true,"internalType":"address"}],"anonymous":false},{"type":"event","name":"OwnershipTransferred","inputs":[{"name":"from","type":"address","indexed":true,"internalType":"address"},{"name":"to","type":"address","indexed":true,"internalType":"address"}],"anonymous":false},{"type":"event","name":"RandomWordsFulfilled","inputs":[{"name":"requestId","type":"uint256","indexed":true,"internalType":"uint256"},{"name":"outputSeed","type":"uint256","indexed":false,"internalType":"uint256"},{"name":"subId","type":"uint256","indexed":true,"internalType":"uint256"},{"name":"payment","type":"uint96","indexed":false,"internalType":"uint96"},{"name":"nativePayment","type":"bool","indexed":false,"internalType":"bool"},{"name":"success","type":"bool","indexed":false,"internalType":"bool"},{"name":"onlyPremium","type":"bool","indexed":false,"internalType":"bool"}],"anonymous":false},{"type":"event","name":"RandomWordsRequested","inputs":[{"name":"keyHash","type":"bytes32","indexed":true,"internalType":"bytes32"},{"name":"requestId","type":"uint256","indexed":false,"internalType":"uint256"},{"name":"preSeed","type":"uint256","indexed":false,"internalType":"uint256"},{"name":"subId","type":"uint256","indexed":true,"internalType":"uint256"},{"name":"minimumRequestConfirmations","type":"uint16","indexed":false,"internalType":"uint16"},{"name":"callbackGasLimit","type":"uint32","indexed":false,"internalType":"uint32"},{"name":"numWords","type":"uint32","indexed":false,"internalType":"uint32"},{"name":"extraArgs","type":"bytes","indexed":false,"internalType":"bytes"},{"name":"sender","type":"address","indexed":true,"internalType":"address"}],"anonymous":false},{"type":"event","name":"SubscriptionCanceled","inputs":[{"name":"subId","type":"uint256","indexed":true,"internalType":"uint256"},{"name":"to","type":"address","indexed":false,"internalType":"address"},{"name":"amountLink","type":"uint256","indexed":false,"internalType":"uint256"},{"name":"amountNative","type":"uint256","indexed":false,"internalType":"uint256"}],"anonymous":false},{"type":"event","name":"SubscriptionConsumerAdded","inputs":[{"name":"subId","type":"uint256","indexed":true,"internalType":"uint256"},{"name":"consumer","type":"address","indexed":false,"internalType":"address"}],"anonymous":false},{"type":"event","name":"SubscriptionConsumerRemoved","inputs":[{"name":"subId","type":"uint256","indexed":true,"internalType":"uint256"},{"name":"consumer","type":"address","indexed":false,"internalType":"address"}],"anonymous":false},{"type":"event","name":"SubscriptionCreated","inputs":[{"name":"subId","type":"uint256","indexed":true,"internalType":"uint256"},{"name":"owner","type":"address","indexed":false,"internalType":"address"}],"anonymous":false},{"type":"event","name":"SubscriptionFunded","inputs":[{"name":"subId","type":"uint256","indexed":true,"internalType":"uint256"},{"name":"oldBalance","type":"uint256","indexed":false,"internalType":"uint256"},{"name":"newBalance","type":"uint256","indexed":false,"internalType":"uint256"}],"anonymous":false},{"type":"event","name":"SubscriptionFundedWithNative","inputs":[{"name":"subId","type":"uint256","indexed":true,"internalType":"uint256"},{"name":"oldNativeBalance","type":"uint256","indexed":false,"internalType":"uint256"},{"name":"newNativeBalance","type":"uint256","indexed":false,"internalType":"uint256"}],"anonymous":false},{"type":"event","name":"SubscriptionOwnerTransferRequested","inputs":[{"name":"subId","type":"uint256","indexed":true,"internalType":"uint256"},{"name":"from","type":"address","indexed":false,"internalType":"address"},{"name":"to","type":"address","indexed":false,"internalType":"address"}],"anonymous":false},{"type":"event","name":"SubscriptionOwnerTransferred","inputs":[{"name":"subId","type":"uint256","indexed":true,"internalType":"uint256"},{"name":"from","type":"address","indexed":false,"internalType":"address"},{"name":"to","type":"address","indexed":false,"internalType":"address"}],"anonymous":false},{"type":"error","name":"BalanceInvariantViolated","inputs":[{"name":"internalBalance","type":"uint256","internalType":"uint256"},{"name":"externalBalance","type":"uint256","internalType":"uint256"}]},{"type":"error","name":"FailedToSendNative","inputs":[]},{"type":"error","name":"FailedToTransferLink","inputs":[]},{"type":"error","name":"IndexOutOfRange","inputs":[]},{"type":"error","name":"InsufficientBalance","inputs":[]},{"type":"error","name":"InvalidCalldata","inputs":[]},{"type":"error","name":"InvalidConsumer","inputs":[{"name":"subId","type":"uint256","internalType":"uint256"},{"name":"consumer","type":"address","internalType":"address"}]},{"type":"error","name":"InvalidExtraArgsTag","inputs":[]},{"type":"error","name":"InvalidRandomWords","inputs":[]},{"type":"error","name":"InvalidRequest","inputs":[]},{"type":"error","name":"InvalidSubscription","inputs":[]},{"type":"error","name":"LinkAlreadySet","inputs":[]},{"type":"error","name":"LinkNotSet","inputs":[]},{"type":"error","name":"MustBeRequestedOwner","inputs":[{"name":"proposedOwner","type":"address","internalType":"address"}]},{"type":"error","name":"MustBeSubOwner","inputs":[{"name":"owner","type":"address","internalType":"address"}]},{"type":"error","name":"NotImplemented","inputs":[]},{"type":"error","name":"OnlyCallableFromLink","inputs":[]},{"type":"error","name":"PendingRequestExists","inputs":[]},{"type":"error","name":"Reentrant","inputs":[]},{"type":"error","name":"TooManyConsumers","inputs":[]}],"bytecode":{"object":"0x60e06040526001600e556064600f55348015610019575f5ffd5b50604051616529380380616529833981810160405281019061003b91906105b3565b33805f5f73ffffffffffffffffffffffffffffffffffffffff168273ffffffffffffffffffffffffffffffffffffffff16036100ac576040517f08c379a00000000000000000000000000000000000000000000000000000000081526004016100a39061065d565b60405180910390fd5b815f5f6101000a81548173ffffffffffffffffffffffffffffffffffffffff021916908373ffffffffffffffffffffffffffffffffffffffff1602179055505f73ffffffffffffffffffffffffffffffffffffffff168173ffffffffffffffffffffffffffffffffffffffff161461012e5761012d8161019760201b60201c565b5b505050826bffffffffffffffffffffffff166080816bffffffffffffffffffffffff1681525050816bffffffffffffffffffffffff1660a0816bffffffffffffffffffffffff16815250508060c0818152505061018f6102c260201b60201c565b50505061074b565b3373ffffffffffffffffffffffffffffffffffffffff168173ffffffffffffffffffffffffffffffffffffffff1603610205576040517f08c379a00000000000000000000000000000000000000000000000000000000081526004016101fc906106c5565b60405180910390fd5b8060015f6101000a81548173ffffffffffffffffffffffffffffffffffffffff021916908373ffffffffffffffffffffffffffffffffffffffff1602179055508073ffffffffffffffffffffffffffffffffffffffff165f5f9054906101000a900473ffffffffffffffffffffffffffffffffffffffff1673ffffffffffffffffffffffffffffffffffffffff167fed8889f560326eb138920d842192f0eb3dd22b4f139c87a2c57538e05bae127860405160405180910390a350565b6102d06104ab60201b60201c565b6040518061012001604052805f61ffff1681526020015f63ffffffff1681526020015f151581526020015f63ffffffff1681526020015f63ffffffff1681526020015f63ffffffff1681526020015f63ffffffff1681526020015f60ff1681526020015f60ff16815250600c5f820151815f015f6101000a81548161ffff021916908361ffff1602179055506020820151815f0160026101000a81548163ffffffff021916908363ffffffff1602179055506040820151815f0160066101000a81548160ff0219169083151502179055506060820151815f0160076101000a81548163ffffffff021916908363ffffffff1602179055506080820151815f01600b6101000a81548163ffffffff021916908363ffffffff16021790555060a0820151815f01600f6101000a81548163ffffffff021916908363ffffffff16021790555060c0820151815f0160136101000a81548163ffffffff021916908363ffffffff16021790555060e0820151815f0160176101000a81548160ff021916908360ff160217905550610100820151815f0160186101000a81548160ff021916908360ff1602179055509050507f4b2974a542484cba2783812ff8033f7fc682cac2fe0905c28c5e27869b3155be60405160405180910390a1565b5f5f9054906101000a900473ffffffffffffffffffffffffffffffffffffffff1673ffffffffffffffffffffffffffffffffffffffff163373ffffffffffffffffffffffffffffffffffffffff1614610539576040517f08c379a00000000000000000000000000000000000000000000000000000000081526004016105309061072d565b60405180910390fd5b565b5f5ffd5b5f6bffffffffffffffffffffffff82169050919050565b61055f8161053f565b8114610569575f5ffd5b50565b5f8151905061057a81610556565b92915050565b5f819050919050565b61059281610580565b811461059c575f5ffd5b50565b5f815190506105ad81610589565b92915050565b5f5f5f606084860312156105ca576105c961053b565b5b5f6105d78682870161056c565b93505060206105e88682870161056c565b92505060406105f98682870161059f565b9150509250925092565b5f82825260208201905092915050565b7f43616e6e6f7420736574206f776e657220746f207a65726f00000000000000005f82015250565b5f610647601883610603565b915061065282610613565b602082019050919050565b5f6020820190508181035f8301526106748161063b565b9050919050565b7f43616e6e6f74207472616e7366657220746f2073656c660000000000000000005f82015250565b5f6106af601783610603565b91506106ba8261067b565b602082019050919050565b5f6020820190508181035f8301526106dc816106a3565b9050919050565b7f4f6e6c792063616c6c61626c65206279206f776e6572000000000000000000005f82015250565b5f610717601683610603565b9150610722826106e3565b602082019050919050565b5f6020820190508181035f8301526107448161070b565b9050919050565b60805160a05160c051615d9f61078a5f395f8181610d1a015261110101525f8181610c95015261312201525f8181610cda01526111680152615d9f5ff3fe60806040526004361061020e575f3560e01c80638b673e7a11610117578063aefb212f1161009f578063dac83d291161006e578063dac83d2914610728578063dc311dd314610750578063dcab3dcf14610790578063e72f6e30146107ba578063f2fde38b146107e25761020e565b8063aefb212f14610674578063b2a7cac5146106b0578063bec4c08c146106d8578063cb631797146107005761020e565b80639b1c385e116100e65780639b1c385e146105945780639d40a6fd146105d0578063a21a23e4146105fa578063a4c0ed3614610624578063aa433aff1461064c5761020e565b80638b673e7a146104fc5780638da5cb5b14610512578063953e9c751461053c57806395b55cfc146105785761020e565b806341af6c871161019a57806372e9d5651161016957806372e9d5651461044257806379ba50971461046c578063808974ff146104825780638402595e146104aa57806386fe91c7146104d25761020e565b806341af6c871461038c57806351cff8d9146103c857806364d51a2a146103f0578063659827441461041a5761020e565b806313478329116101e157806313478329146102bc57806318e3dd27146102e65780631b6b6d23146103105780631eebc1171461033a5780632f622e6b146103645761020e565b8063088070f51461021257806308e3898e146102445780630ae095401461026c578063115e3c0d14610294575b5f5ffd5b34801561021d575f5ffd5b5061022661080a565b60405161023b9998979695949392919061457f565b60405180910390f35b34801561024f575f5ffd5b5061026a600480360381019061026591906147f8565b6108c1565b005b348015610277575f5ffd5b50610292600480360381019061028d9190614864565b610e13565b005b34801561029f575f5ffd5b506102ba60048036038101906102b591906148a2565b610f25565b005b3480156102c7575f5ffd5b506102d06110ff565b6040516102dd91906148f8565b60405180910390f35b3480156102f1575f5ffd5b506102fa611123565b6040516103079190614937565b60405180910390f35b34801561031b575f5ffd5b50610324611141565b60405161033191906149ab565b60405180910390f35b348015610345575f5ffd5b5061034e611166565b60405161035b9190614937565b60405180910390f35b34801561036f575f5ffd5b5061038a600480360381019061038591906149ff565b61118a565b005b348015610397575f5ffd5b506103b260048036038101906103ad9190614a2a565b611275565b6040516103bf9190614a55565b60405180910390f35b3480156103d3575f5ffd5b506103ee60048036038101906103e99190614a6e565b6112a8565b005b3480156103fb575f5ffd5b506104046114a2565b6040516104119190614a99565b60405180910390f35b348015610425575f5ffd5b50610440600480360381019061043b9190614ab2565b6114a7565b005b34801561044d575f5ffd5b506104566115b9565b6040516104639190614b10565b60405180910390f35b348015610477575f5ffd5b506104806115de565b005b34801561048d575f5ffd5b506104a860048036038101906104a39190614864565b61176d565b005b3480156104b5575f5ffd5b506104d060048036038101906104cb91906149ff565b6117cc565b005b3480156104dd575f5ffd5b506104e6611942565b6040516104f39190614937565b60405180910390f35b348015610507575f5ffd5b5061051061195f565b005b34801561051d575f5ffd5b50610526611b42565b6040516105339190614b38565b60405180910390f35b348015610547575f5ffd5b50610562600480360381019061055d9190614864565b611b69565b60405161056f9190614a55565b60405180910390f35b610592600480360381019061058d9190614a2a565b611bcd565b005b34801561059f575f5ffd5b506105ba60048036038101906105b59190614b73565b611d55565b6040516105c79190614bc9565b60405180910390f35b3480156105db575f5ffd5b506105e461206f565b6040516105f19190614c04565b60405180910390f35b348015610605575f5ffd5b5061060e612088565b60405161061b9190614bc9565b60405180910390f35b34801561062f575f5ffd5b5061064a60048036038101906106459190614c76565b6123a9565b005b348015610657575f5ffd5b50610672600480360381019061066d9190614a2a565b612607565b005b34801561067f575f5ffd5b5061069a600480360381019061069591906148a2565b61265c565b6040516106a79190614d9e565b60405180910390f35b3480156106bb575f5ffd5b506106d660048036038101906106d19190614a2a565b612788565b005b3480156106e3575f5ffd5b506106fe60048036038101906106f99190614864565b612986565b005b34801561070b575f5ffd5b5061072660048036038101906107219190614864565b612b15565b005b348015610733575f5ffd5b5061074e60048036038101906107499190614864565b612eb1565b005b34801561075b575f5ffd5b5061077660048036038101906107719190614a2a565b612fb0565b604051610787959493929190614e75565b60405180910390f35b34801561079b575f5ffd5b506107a4613120565b6040516107b19190614937565b60405180910390f35b3480156107c5575f5ffd5b506107e060048036038101906107db9190614a6e565b613144565b005b3480156107ed575f5ffd5b5061080860048036038101906108039190614a6e565b613409565b005b600c805f015f9054906101000a900461ffff1690805f0160029054906101000a900463ffffffff1690805f0160069054906101000a900460ff1690805f0160079054906101000a900463ffffffff1690805f01600b9054906101000a900463ffffffff1690805f01600f9054906101000a900463ffffffff1690805f0160139054906101000a900463ffffffff1690805f0160179054906101000a900460ff1690805f0160189054906101000a900460ff16905089565b5f5a90505f60105f8681526020019081526020015f205f015403610911576040517f41abc80100000000000000000000000000000000000000000000000000000000815260040160405180910390fd5b5f60105f8681526020019081526020015f206040518060800160405290815f8201548152602001600182015f9054906101000a900463ffffffff1663ffffffff1663ffffffff1681526020016001820160049054906101000a900463ffffffff1663ffffffff1663ffffffff16815260200160028201805461099290614efa565b80601f01602080910402602001604051908101604052809291908181526020018280546109be90614efa565b8015610a095780601f106109e057610100808354040283529160200191610a09565b820191905f5260205f20905b8154815290600101906020018083116109ec57829003601f168201915b50505050508152505090505f835103610ae557806040015163ffffffff1667ffffffffffffffff811115610a4057610a3f6146bc565b5b604051908082528060200260200182016040528015610a6e5781602001602082028036833780820191505090505b5092505f5f90505b816040015163ffffffff16811015610adf578581604051602001610a9b929190614f2a565b604051602081830303815290604052805190602001205f1c848281518110610ac657610ac5614f51565b5b6020026020010181815250508080600101915050610a76565b50610b2a565b806040015163ffffffff16835114610b29576040517f3f3df5b600000000000000000000000000000000000000000000000000000000815260040160405180910390fd5b5b5f5f631fe543e360e01b8786604051602401610b47929190614f7e565b604051602081830303815290604052907bffffffffffffffffffffffffffffffffffffffffffffffffffffffff19166020820180517bffffffffffffffffffffffffffffffffffffffffffffffffffffffff838183161783525050505090506001600c5f0160066101000a81548160ff0219169083151502179055505f8673ffffffffffffffffffffffffffffffffffffffff16846020015163ffffffff1683604051610bf49190614ffe565b5f604051808303815f8787f1925050503d805f8114610c2e576040519150601f19603f3d011682016040523d82523d5f602084013e610c33565b606091505b505090505f600c5f0160066101000a81548160ff0219169083151502179055505f600185606001516001876060015151610c6d9190615041565b81518110610c7e57610c7d614f51565b5b602001015160f81c60f81b60f81c60ff161490505f7f00000000000000000000000000000000000000000000000000000000000000006bffffffffffffffffffffffff165a88610cce9190615041565b610cd89190615074565b7f00000000000000000000000000000000000000000000000000000000000000006bffffffffffffffffffffffff16610d1191906150b5565b905081610d5a577f000000000000000000000000000000000000000000000000000000000000000081670de0b6b3a7640000610d4d9190615074565b610d579190615115565b90505b5f819050610d6c8184895f015161341d565b60105f8c81526020019081526020015f205f5f82015f9055600182015f6101000a81549063ffffffff02191690556001820160046101000a81549063ffffffff0219169055600282015f610dc091906143f5565b5050865f01518b7faeb4b4786571e184246d39587f659abf0e26f41f6a3358692250382c0cdb47b78d8487895f604051610dfe959493929190615145565b60405180910390a35050505050505050505050565b81610e1d816136bb565b610e2561376e565b5f5f610e30856137b9565b915091505f8473ffffffffffffffffffffffffffffffffffffffff16826bffffffffffffffffffffffff16604051610e67906151b9565b5f6040518083038185875af1925050503d805f8114610ea1576040519150601f19603f3d011682016040523d82523d5f602084013e610ea6565b606091505b5050905080610ee1576040517f950b247900000000000000000000000000000000000000000000000000000000815260040160405180910390fd5b857f8c74ce8b8cf87f5eb001275c8be27eb34ea2b62bfab6814fcc62192bb63e81c4868585604051610f15939291906151fd565b60405180910390a2505050505050565b5f73ffffffffffffffffffffffffffffffffffffffff1660055f8481526020019081526020015f205f015f9054906101000a900473ffffffffffffffffffffffffffffffffffffffff1673ffffffffffffffffffffffffffffffffffffffff1603610fbc576040517f1f6a65b600000000000000000000000000000000000000000000000000000000815260040160405180910390fd5b5f60065f8481526020019081526020015f205f015f9054906101000a90046bffffffffffffffffffffffff166bffffffffffffffffffffffff1690508160065f8581526020019081526020015f205f015f8282829054906101000a90046bffffffffffffffffffffffff166110319190615232565b92506101000a8154816bffffffffffffffffffffffff02191690836bffffffffffffffffffffffff16021790555081600a5f8282829054906101000a90046bffffffffffffffffffffffff166110879190615232565b92506101000a8154816bffffffffffffffffffffffff02191690836bffffffffffffffffffffffff160217905550827f1ced9348ff549fceab2ac57cd3a9de38edaaab274b725ee82c23e8fc8c4eec7a8284846110e491906150b5565b6040516110f2929190614f2a565b60405180910390a2505050565b7f000000000000000000000000000000000000000000000000000000000000000081565b600a600c9054906101000a90046bffffffffffffffffffffffff1681565b60025f9054906101000a900473ffffffffffffffffffffffffffffffffffffffff1681565b7f000000000000000000000000000000000000000000000000000000000000000081565b61119261376e565b61119a613ae9565b5f600b600c9054906101000a90046bffffffffffffffffffffffff1690506111d15f826bffffffffffffffffffffffff1611613b79565b5f600b600c6101000a8154816bffffffffffffffffffffffff02191690836bffffffffffffffffffffffff16021790555080600a600c8282829054906101000a90046bffffffffffffffffffffffff1661122b9190615271565b92506101000a8154816bffffffffffffffffffffffff02191690836bffffffffffffffffffffffff16021790555061127182826bffffffffffffffffffffffff16613bb3565b5050565b5f6040517fd623472500000000000000000000000000000000000000000000000000000000815260040160405180910390fd5b6112b061376e565b6112b8613ae9565b5f73ffffffffffffffffffffffffffffffffffffffff1660025f9054906101000a900473ffffffffffffffffffffffffffffffffffffffff1673ffffffffffffffffffffffffffffffffffffffff160361133e576040517fc1f0c0a100000000000000000000000000000000000000000000000000000000815260040160405180910390fd5b5f600b5f9054906101000a90046bffffffffffffffffffffffff1690506113745f826bffffffffffffffffffffffff1611613b79565b5f600b5f6101000a8154816bffffffffffffffffffffffff02191690836bffffffffffffffffffffffff16021790555080600a5f8282829054906101000a90046bffffffffffffffffffffffff166113cc9190615271565b92506101000a8154816bffffffffffffffffffffffff02191690836bffffffffffffffffffffffff16021790555061149e60025f9054906101000a900473ffffffffffffffffffffffffffffffffffffffff1673ffffffffffffffffffffffffffffffffffffffff1663a9059cbb84846040518363ffffffff1660e01b81526004016114599291906152b0565b6020604051808303815f875af1158015611475573d5f5f3e3d5ffd5b505050506040513d601f19601f820116820180604052508101906114999190615301565b613b79565b5050565b606481565b6114af613ae9565b5f73ffffffffffffffffffffffffffffffffffffffff1660025f9054906101000a900473ffffffffffffffffffffffffffffffffffffffff1673ffffffffffffffffffffffffffffffffffffffff1614611535576040517f2d118a6e00000000000000000000000000000000000000000000000000000000815260040160405180910390fd5b8160025f6101000a81548173ffffffffffffffffffffffffffffffffffffffff021916908373ffffffffffffffffffffffffffffffffffffffff1602179055508060035f6101000a81548173ffffffffffffffffffffffffffffffffffffffff021916908373ffffffffffffffffffffffffffffffffffffffff1602179055505050565b60035f9054906101000a900473ffffffffffffffffffffffffffffffffffffffff1681565b60015f9054906101000a900473ffffffffffffffffffffffffffffffffffffffff1673ffffffffffffffffffffffffffffffffffffffff163373ffffffffffffffffffffffffffffffffffffffff161461166d576040517f08c379a000000000000000000000000000000000000000000000000000000000815260040161166490615386565b60405180910390fd5b5f5f5f9054906101000a900473ffffffffffffffffffffffffffffffffffffffff169050335f5f6101000a81548173ffffffffffffffffffffffffffffffffffffffff021916908373ffffffffffffffffffffffffffffffffffffffff1602179055505f60015f6101000a81548173ffffffffffffffffffffffffffffffffffffffff021916908373ffffffffffffffffffffffffffffffffffffffff1602179055503373ffffffffffffffffffffffffffffffffffffffff168173ffffffffffffffffffffffffffffffffffffffff167f8be0079c531659141344cd1fd0a4f28419497f9722a3daafe3b4186f6b6457e060405160405180910390a350565b61177561376e565b6117c882825f67ffffffffffffffff811115611794576117936146bc565b5b6040519080825280602002602001820160405280156117c25781602001602082028036833780820191505090505b506108c1565b5050565b6117d4613ae9565b5f4790505f600a600c9054906101000a90046bffffffffffffffffffffffff166bffffffffffffffffffffffff1690508181111561184b5780826040517fa99da302000000000000000000000000000000000000000000000000000000008152600401611842929190614f2a565b60405180910390fd5b8181101561193d575f81836118609190615041565b90505f8473ffffffffffffffffffffffffffffffffffffffff1682604051611887906151b9565b5f6040518083038185875af1925050503d805f81146118c1576040519150601f19603f3d011682016040523d82523d5f602084013e6118c6565b606091505b5050905080611901576040517f950b247900000000000000000000000000000000000000000000000000000000815260040160405180910390fd5b7f4aed7c8eed0496c8c19ea2681fcca25741c1602342e38b045d9f1e8e905d2e9c85836040516119329291906153c4565b60405180910390a150505b505050565b600a5f9054906101000a90046bffffffffffffffffffffffff1681565b611967613ae9565b6040518061012001604052805f61ffff1681526020015f63ffffffff1681526020015f151581526020015f63ffffffff1681526020015f63ffffffff1681526020015f63ffffffff1681526020015f63ffffffff1681526020015f60ff1681526020015f60ff16815250600c5f820151815f015f6101000a81548161ffff021916908361ffff1602179055506020820151815f0160026101000a81548163ffffffff021916908363ffffffff1602179055506040820151815f0160066101000a81548160ff0219169083151502179055506060820151815f0160076101000a81548163ffffffff021916908363ffffffff1602179055506080820151815f01600b6101000a81548163ffffffff021916908363ffffffff16021790555060a0820151815f01600f6101000a81548163ffffffff021916908363ffffffff16021790555060c0820151815f0160136101000a81548163ffffffff021916908363ffffffff16021790555060e0820151815f0160176101000a81548160ff021916908360ff160217905550610100820151815f0160186101000a81548160ff021916908360ff1602179055509050507f4b2974a542484cba2783812ff8033f7fc682cac2fe0905c28c5e27869b3155be60405160405180910390a1565b5f5f5f9054906101000a900473ffffffffffffffffffffffffffffffffffffffff16905090565b5f60045f8373ffffffffffffffffffffffffffffffffffffffff1673ffffffffffffffffffffffffffffffffffffffff1681526020019081526020015f205f8481526020019081526020015f205f015f9054906101000a900460ff16905092915050565b611bd561376e565b611c1060055f8381526020019081526020015f205f015f9054906101000a900473ffffffffffffffffffffffffffffffffffffffff16613c57565b5f60065f8381526020019081526020015f205f01600c9054906101000a90046bffffffffffffffffffffffff166bffffffffffffffffffffffff1690503460065f8481526020019081526020015f205f01600c8282829054906101000a90046bffffffffffffffffffffffff16611c879190615232565b92506101000a8154816bffffffffffffffffffffffff02191690836bffffffffffffffffffffffff16021790555034600a600c8282829054906101000a90046bffffffffffffffffffffffff16611cde9190615232565b92506101000a8154816bffffffffffffffffffffffff02191690836bffffffffffffffffffffffff160217905550817f7603b205d03651ee812f803fccde89f1012e545a9c99f0abfea9cedd0fd8e902823484611d3b91906150b5565b604051611d49929190614f2a565b60405180910390a25050565b5f611d5e61376e565b816020013533611d6e8282611b69565b611db15781816040517f79bfd401000000000000000000000000000000000000000000000000000000008152600401611da89291906153eb565b60405180910390fd5b5f846020013590505f73ffffffffffffffffffffffffffffffffffffffff1660055f8381526020019081526020015f205f015f9054906101000a900473ffffffffffffffffffffffffffffffffffffffff1673ffffffffffffffffffffffffffffffffffffffff1603611e50576040517f1f6a65b600000000000000000000000000000000000000000000000000000000815260040160405180910390fd5b5f600e5f815480929190611e6390615412565b9190505590505f600f5f815480929190611e7c90615412565b9190505590505f611ea3611e9e898060a00190611e999190615465565b613cbf565b613db5565b9050604051806080016040528089602001358152602001896060016020810190611ecd91906154f1565b63ffffffff168152602001896080016020810190611eeb91906154f1565b63ffffffff168152602001898060a00190611f069190615465565b8080601f0160208091040260200160405190810160405280939291908181526020018383808284375f81840152601f19601f8201169050808301925050505050505081525060105f8581526020019081526020015f205f820151815f01556020820151816001015f6101000a81548163ffffffff021916908363ffffffff16021790555060408201518160010160046101000a81548163ffffffff021916908363ffffffff1602179055506060820151816002019081611fc691906156b3565b509050503373ffffffffffffffffffffffffffffffffffffffff168860200135895f01357feb0e3652e0f44f417695e6e90f2f42c99b65cd7169074c5a654b16b9748c3a4e86868d604001602081019061202091906157ac565b8e606001602081019061203391906154f1565b8f608001602081019061204691906154f1565b896040516120599695949392919061581f565b60405180910390a4829650505050505050919050565b60075f9054906101000a900467ffffffffffffffff1681565b5f61209161376e565b5f60075f9054906101000a900467ffffffffffffffff169050336001436120b89190615041565b4030836040516020016120ce9493929190615927565b604051602081830303815290604052805190602001205f1c91506001816120f59190615974565b60075f6101000a81548167ffffffffffffffff021916908367ffffffffffffffff1602179055505f5f67ffffffffffffffff811115612137576121366146bc565b5b6040519080825280602002602001820160405280156121655781602001602082028036833780820191505090505b50905060405180606001604052805f6bffffffffffffffffffffffff1681526020015f6bffffffffffffffffffffffff1681526020015f67ffffffffffffffff1681525060065f8581526020019081526020015f205f820151815f015f6101000a8154816bffffffffffffffffffffffff02191690836bffffffffffffffffffffffff1602179055506020820151815f01600c6101000a8154816bffffffffffffffffffffffff02191690836bffffffffffffffffffffffff1602179055506040820151815f0160186101000a81548167ffffffffffffffff021916908367ffffffffffffffff16021790555090505060405180606001604052803373ffffffffffffffffffffffffffffffffffffffff1681526020015f73ffffffffffffffffffffffffffffffffffffffff1681526020018281525060055f8581526020019081526020015f205f820151815f015f6101000a81548173ffffffffffffffffffffffffffffffffffffffff021916908373ffffffffffffffffffffffffffffffffffffffff1602179055506020820151816001015f6101000a81548173ffffffffffffffffffffffffffffffffffffffff021916908373ffffffffffffffffffffffffffffffffffffffff1602179055506040820151816002019080519060200190612353929190614432565b5090505061236b836008613e4d90919063ffffffff16565b50827f1d3015d7ba850fa198dc7b1a3f5d42779313a681035f77c8c03764c61005518d3360405161239c9190614b38565b60405180910390a2505090565b6123b161376e565b60025f9054906101000a900473ffffffffffffffffffffffffffffffffffffffff1673ffffffffffffffffffffffffffffffffffffffff163373ffffffffffffffffffffffffffffffffffffffff1614612437576040517f44b0e3c300000000000000000000000000000000000000000000000000000000815260040160405180910390fd5b60208282905014612474576040517f8129bbcd00000000000000000000000000000000000000000000000000000000815260040160405180910390fd5b5f82828101906124849190614a2a565b90506124c160055f8381526020019081526020015f205f015f9054906101000a900473ffffffffffffffffffffffffffffffffffffffff16613c57565b5f60065f8381526020019081526020015f205f015f9054906101000a90046bffffffffffffffffffffffff166bffffffffffffffffffffffff1690508460065f8481526020019081526020015f205f015f8282829054906101000a90046bffffffffffffffffffffffff166125369190615232565b92506101000a8154816bffffffffffffffffffffffff02191690836bffffffffffffffffffffffff16021790555084600a5f8282829054906101000a90046bffffffffffffffffffffffff1661258c9190615232565b92506101000a8154816bffffffffffffffffffffffff02191690836bffffffffffffffffffffffff160217905550817f1ced9348ff549fceab2ac57cd3a9de38edaaab274b725ee82c23e8fc8c4eec7a8287846125e991906150b5565b6040516125f7929190614f2a565b60405180910390a2505050505050565b61260f613ae9565b5f60055f8381526020019081526020015f205f015f9054906101000a900473ffffffffffffffffffffffffffffffffffffffff16905061264e81613c57565b6126588282613e64565b5050565b60605f6126696008613ff0565b90508084106126a4576040517f1390f2a100000000000000000000000000000000000000000000000000000000815260040160405180910390fd5b5f83856126b191906150b5565b9050818111806126c057505f84145b6126ca57806126cc565b815b90505f85826126db9190615041565b90508067ffffffffffffffff8111156126f7576126f66146bc565b5b6040519080825280602002602001820160405280156127255781602001602082028036833780820191505090505b5093505f5f90505b8181101561277e57612754878261274491906150b5565b600861400390919063ffffffff16565b85828151811061276757612766614f51565b5b60200260200101818152505080600101905061272d565b5050505092915050565b61279061376e565b5f60055f8381526020019081526020015f205f015f9054906101000a900473ffffffffffffffffffffffffffffffffffffffff1690506127cf81613c57565b3373ffffffffffffffffffffffffffffffffffffffff1660055f8481526020019081526020015f206001015f9054906101000a900473ffffffffffffffffffffffffffffffffffffffff1673ffffffffffffffffffffffffffffffffffffffff16146128a55760055f8381526020019081526020015f206001015f9054906101000a900473ffffffffffffffffffffffffffffffffffffffff166040517fd084e97500000000000000000000000000000000000000000000000000000000815260040161289c9190614b38565b60405180910390fd5b3360055f8481526020019081526020015f205f015f6101000a81548173ffffffffffffffffffffffffffffffffffffffff021916908373ffffffffffffffffffffffffffffffffffffffff1602179055505f60055f8481526020019081526020015f206001015f6101000a81548173ffffffffffffffffffffffffffffffffffffffff021916908373ffffffffffffffffffffffffffffffffffffffff160217905550817fd4114ab6e9af9f597c52041f32d62dc57c5c4e4c0d4427006069635e216c9386823360405161297a9291906159af565b60405180910390a25050565b81612990816136bb565b61299861376e565b5f60045f8473ffffffffffffffffffffffffffffffffffffffff1673ffffffffffffffffffffffffffffffffffffffff1681526020019081526020015f205f8581526020019081526020015f209050805f015f9054906101000a900460ff1615612a025750612b10565b5f60055f8681526020019081526020015f206002019050606461ffff16818054905003612a5b576040517f05a48e0f00000000000000000000000000000000000000000000000000000000815260040160405180910390fd5b6001825f015f6101000a81548160ff0219169083151502179055508084908060018154018082558091505060019003905f5260205f20015f9091909190916101000a81548173ffffffffffffffffffffffffffffffffffffffff021916908373ffffffffffffffffffffffffffffffffffffffff160217905550847f1e980d04aa7648e205713e5e8ea3808672ac163d10936d36f91b2c88ac1575e185604051612b059190614b38565b60405180910390a250505b505050565b81612b1f816136bb565b8282612b2b8282611b69565b612b6e5781816040517f79bfd401000000000000000000000000000000000000000000000000000000008152600401612b659291906153eb565b60405180910390fd5b612b7661376e565b60045f8573ffffffffffffffffffffffffffffffffffffffff1673ffffffffffffffffffffffffffffffffffffffff1681526020019081526020015f205f8681526020019081526020015f205f015f9054906101000a900460ff16612c145784846040517f79bfd401000000000000000000000000000000000000000000000000000000008152600401612c0b9291906153eb565b60405180910390fd5b5f60055f8781526020019081526020015f20600201805480602002602001604051908101604052809291908181526020018280548015612ca657602002820191905f5260205f20905b815f9054906101000a900473ffffffffffffffffffffffffffffffffffffffff1673ffffffffffffffffffffffffffffffffffffffff1681526020019060010190808311612c5d575b505050505090505f60018251612cbc9190615041565b90505f5f90505b8251811015612e0a578673ffffffffffffffffffffffffffffffffffffffff16838281518110612cf657612cf5614f51565b5b602002602001015173ffffffffffffffffffffffffffffffffffffffff1603612dff575f838381518110612d2d57612d2c614f51565b5b602002602001015190508060055f8b81526020019081526020015f206002018381548110612d5e57612d5d614f51565b5b905f5260205f20015f6101000a81548173ffffffffffffffffffffffffffffffffffffffff021916908373ffffffffffffffffffffffffffffffffffffffff16021790555060055f8a81526020019081526020015f20600201805480612dc757612dc66159d6565b5b600190038181905f5260205f20015f6101000a81549073ffffffffffffffffffffffffffffffffffffffff0219169055905550612e0a565b806001019050612cc3565b505f60045f8873ffffffffffffffffffffffffffffffffffffffff1673ffffffffffffffffffffffffffffffffffffffff1681526020019081526020015f205f8981526020019081526020015f205f015f6101000a81548160ff021916908315150217905550867f32158c6058347c1601b2d12bc696ac6901d8a9a9aa3ba10c27ab0a983e8425a787604051612ea09190614b38565b60405180910390a250505050505050565b81612ebb816136bb565b612ec361376e565b5f60055f8581526020019081526020015f2090508273ffffffffffffffffffffffffffffffffffffffff16816001015f9054906101000a900473ffffffffffffffffffffffffffffffffffffffff1673ffffffffffffffffffffffffffffffffffffffff1614612faa5782816001015f6101000a81548173ffffffffffffffffffffffffffffffffffffffff021916908373ffffffffffffffffffffffffffffffffffffffff160217905550837f21a4dad170a6bf476c31bbcf4a16628295b0e450672eec25d7c93308e05344a13385604051612fa19291906159af565b60405180910390a25b50505050565b5f5f5f5f606060055f8781526020019081526020015f205f015f9054906101000a900473ffffffffffffffffffffffffffffffffffffffff169150612ff482613c57565b60065f8781526020019081526020015f205f015f9054906101000a90046bffffffffffffffffffffffff1660065f8881526020019081526020015f205f01600c9054906101000a90046bffffffffffffffffffffffff1660065f8981526020019081526020015f205f0160189054906101000a900467ffffffffffffffff168460055f8b81526020019081526020015f206002018080548060200260200160405190810160405280929190818152602001828054801561310657602002820191905f5260205f20905b815f9054906101000a900473ffffffffffffffffffffffffffffffffffffffff1673ffffffffffffffffffffffffffffffffffffffff16815260200190600101908083116130bd575b505050505090509450945094509450945091939590929450565b7f000000000000000000000000000000000000000000000000000000000000000081565b61314c613ae9565b5f73ffffffffffffffffffffffffffffffffffffffff1660025f9054906101000a900473ffffffffffffffffffffffffffffffffffffffff1673ffffffffffffffffffffffffffffffffffffffff16036131d2576040517fc1f0c0a100000000000000000000000000000000000000000000000000000000815260040160405180910390fd5b5f60025f9054906101000a900473ffffffffffffffffffffffffffffffffffffffff1673ffffffffffffffffffffffffffffffffffffffff166370a08231306040518263ffffffff1660e01b815260040161322d9190614b38565b602060405180830381865afa158015613248573d5f5f3e3d5ffd5b505050506040513d601f19601f8201168201806040525081019061326c9190615a17565b90505f600a5f9054906101000a90046bffffffffffffffffffffffff166bffffffffffffffffffffffff169050818111156132e05780826040517fa99da3020000000000000000000000000000000000000000000000000000000081526004016132d7929190614f2a565b60405180910390fd5b81811015613404575f81836132f59190615041565b905060025f9054906101000a900473ffffffffffffffffffffffffffffffffffffffff1673ffffffffffffffffffffffffffffffffffffffff1663a9059cbb85836040518363ffffffff1660e01b8152600401613353929190615a42565b6020604051808303815f875af115801561336f573d5f5f3e3d5ffd5b505050506040513d601f19601f820116820180604052508101906133939190615301565b6133c9576040517f7c07fc4c00000000000000000000000000000000000000000000000000000000815260040160405180910390fd5b7f59bfc682b673f8cbf945f1e454df9334834abf7dfe7f92237ca29ecb9b43660084826040516133fa929190615a42565b60405180910390a1505b505050565b613411613ae9565b61341a8161401a565b50565b5f60065f8381526020019081526020015f2090508215613546575f815f01600c9054906101000a90046bffffffffffffffffffffffff169050846bffffffffffffffffffffffff16816bffffffffffffffffffffffff1610156134ac576040517ff4d678b800000000000000000000000000000000000000000000000000000000815260040160405180910390fd5b84816134b89190615271565b825f01600c6101000a8154816bffffffffffffffffffffffff02191690836bffffffffffffffffffffffff16021790555084600b600c8282829054906101000a90046bffffffffffffffffffffffff166135129190615232565b92506101000a8154816bffffffffffffffffffffffff02191690836bffffffffffffffffffffffff160217905550506136b5565b6135ad6040518060400160405280600f81526020017f5061796d656e7420696e204c494e4b0000000000000000000000000000000000815250825f015f9054906101000a90046bffffffffffffffffffffffff166bffffffffffffffffffffffff16614145565b5f815f015f9054906101000a90046bffffffffffffffffffffffff169050846bffffffffffffffffffffffff16816bffffffffffffffffffffffff161015613621576040517ff4d678b800000000000000000000000000000000000000000000000000000000815260040160405180910390fd5b848161362d9190615271565b825f015f6101000a8154816bffffffffffffffffffffffff02191690836bffffffffffffffffffffffff16021790555084600b5f8282829054906101000a90046bffffffffffffffffffffffff166136859190615232565b92506101000a8154816bffffffffffffffffffffffff02191690836bffffffffffffffffffffffff160217905550505b50505050565b5f60055f8381526020019081526020015f205f015f9054906101000a900473ffffffffffffffffffffffffffffffffffffffff1690506136fa81613c57565b8073ffffffffffffffffffffffffffffffffffffffff163373ffffffffffffffffffffffffffffffffffffffff161461376a57806040517fd8a3fb520000000000000000000000000000000000000000000000000000000081526004016137619190614b38565b60405180910390fd5b5050565b600c5f0160069054906101000a900460ff16156137b7576040517fed3ba6a600000000000000000000000000000000000000000000000000000000815260040160405180910390fd5b565b5f5f5f60055f8581526020019081526020015f20600201905060065f8581526020019081526020015f205f015f9054906101000a90046bffffffffffffffffffffffff16925060065f8581526020019081526020015f205f01600c9054906101000a90046bffffffffffffffffffffffff1691505f818054905090505f5f90505b8181101561391c5760045f84838154811061385857613857614f51565b5b905f5260205f20015f9054906101000a900473ffffffffffffffffffffffffffffffffffffffff1673ffffffffffffffffffffffffffffffffffffffff1673ffffffffffffffffffffffffffffffffffffffff1681526020019081526020015f205f8781526020019081526020015f205f5f82015f6101000a81549060ff02191690555f820160016101000a81549067ffffffffffffffff02191690555f820160096101000a81549067ffffffffffffffff0219169055505080600101905061383a565b5060055f8681526020019081526020015f205f5f82015f6101000a81549073ffffffffffffffffffffffffffffffffffffffff0219169055600182015f6101000a81549073ffffffffffffffffffffffffffffffffffffffff0219169055600282015f61398991906144b9565b505060065f8681526020019081526020015f205f5f82015f6101000a8154906bffffffffffffffffffffffff02191690555f8201600c6101000a8154906bffffffffffffffffffffffff02191690555f820160186101000a81549067ffffffffffffffff02191690555050613a088560086141e190919063ffffffff16565b505f846bffffffffffffffffffffffff1614613a755783600a5f8282829054906101000a90046bffffffffffffffffffffffff16613a469190615271565b92506101000a8154816bffffffffffffffffffffffff02191690836bffffffffffffffffffffffff1602179055505b5f836bffffffffffffffffffffffff1614613ae25782600a600c8282829054906101000a90046bffffffffffffffffffffffff16613ab39190615271565b92506101000a8154816bffffffffffffffffffffffff02191690836bffffffffffffffffffffffff1602179055505b5050915091565b5f5f9054906101000a900473ffffffffffffffffffffffffffffffffffffffff1673ffffffffffffffffffffffffffffffffffffffff163373ffffffffffffffffffffffffffffffffffffffff1614613b77576040517f08c379a0000000000000000000000000000000000000000000000000000000008152600401613b6e90615ab3565b60405180910390fd5b565b80613bb0576040517ff4d678b800000000000000000000000000000000000000000000000000000000815260040160405180910390fd5b50565b5f8273ffffffffffffffffffffffffffffffffffffffff1682604051613bd8906151b9565b5f6040518083038185875af1925050503d805f8114613c12576040519150601f19603f3d011682016040523d82523d5f602084013e613c17565b606091505b5050905080613c52576040517f950b247900000000000000000000000000000000000000000000000000000000815260040160405180910390fd5b505050565b5f73ffffffffffffffffffffffffffffffffffffffff168173ffffffffffffffffffffffffffffffffffffffff1603613cbc576040517f1f6a65b600000000000000000000000000000000000000000000000000000000815260040160405180910390fd5b50565b613cc76144d7565b5f8383905003613ce95760405180602001604052805f15158152509050613daf565b7f92fd13387c7fe7befbc38d303d6468778fb9731bc4583f17d92989c6fcfdeaaa7bffffffffffffffffffffffffffffffffffffffffffffffffffffffff1916838390613d369190615b06565b7bffffffffffffffffffffffffffffffffffffffffffffffffffffffff191614613d8c576040517f5247fdce00000000000000000000000000000000000000000000000000000000815260040160405180910390fd5b82826004908092613d9f93929190615b6c565b810190613dac9190615bf7565b90505b92915050565b60607f92fd13387c7fe7befbc38d303d6468778fb9731bc4583f17d92989c6fcfdeaaa82604051602401613de99190615c4b565b604051602081830303815290604052907bffffffffffffffffffffffffffffffffffffffffffffffffffffffff19166020820180517bffffffffffffffffffffffffffffffffffffffffffffffffffffffff83818316178352505050509050919050565b5f613e5c835f01835f1b6141f8565b905092915050565b5f5f613e6f846137b9565b915091505f73ffffffffffffffffffffffffffffffffffffffff1660025f9054906101000a900473ffffffffffffffffffffffffffffffffffffffff1673ffffffffffffffffffffffffffffffffffffffff1614158015613ede57505f826bffffffffffffffffffffffff1614155b15613f9657613f9560025f9054906101000a900473ffffffffffffffffffffffffffffffffffffffff1673ffffffffffffffffffffffffffffffffffffffff1663a9059cbb85856bffffffffffffffffffffffff166040518363ffffffff1660e01b8152600401613f50929190615a42565b6020604051808303815f875af1158015613f6c573d5f5f3e3d5ffd5b505050506040513d601f19601f82011682018060405250810190613f909190615301565b613b79565b5b613fae83826bffffffffffffffffffffffff16613bb3565b837f8c74ce8b8cf87f5eb001275c8be27eb34ea2b62bfab6814fcc62192bb63e81c4848484604051613fe2939291906151fd565b60405180910390a250505050565b5f613ffc825f0161425f565b9050919050565b5f614010835f018361426e565b5f1c905092915050565b3373ffffffffffffffffffffffffffffffffffffffff168173ffffffffffffffffffffffffffffffffffffffff1603614088576040517f08c379a000000000000000000000000000000000000000000000000000000000815260040161407f90615cae565b60405180910390fd5b8060015f6101000a81548173ffffffffffffffffffffffffffffffffffffffff021916908373ffffffffffffffffffffffffffffffffffffffff1602179055508073ffffffffffffffffffffffffffffffffffffffff165f5f9054906101000a900473ffffffffffffffffffffffffffffffffffffffff1673ffffffffffffffffffffffffffffffffffffffff167fed8889f560326eb138920d842192f0eb3dd22b4f139c87a2c57538e05bae127860405160405180910390a350565b6141dd828260405160240161415b929190615d0e565b6040516020818303038152906040527fb60e72cc000000000000000000000000000000000000000000000000000000007bffffffffffffffffffffffffffffffffffffffffffffffffffffffff19166020820180517bffffffffffffffffffffffffffffffffffffffffffffffffffffffff8381831617835250505050614295565b5050565b5f6141f0835f01835f1b6142af565b905092915050565b5f61420383836143ab565b61425557825f0182908060018154018082558091505060019003905f5260205f20015f9091909190915055825f0180549050836001015f8481526020019081526020015f208190555060019050614259565b5f90505b92915050565b5f815f01805490509050919050565b5f825f01828154811061428457614283614f51565b5b905f5260205f200154905092915050565b6142ac816142a46143cb6143ea565b63ffffffff16565b50565b5f5f836001015f8481526020019081526020015f205490505f81146143a0575f6001826142dc9190615041565b90505f6001865f01805490506142f29190615041565b9050818114614358575f865f01828154811061431157614310614f51565b5b905f5260205f200154905080875f01848154811061433257614331614f51565b5b905f5260205f20018190555083876001015f8381526020019081526020015f2081905550505b855f0180548061436b5761436a6159d6565b5b600190038181905f5260205f20015f90559055856001015f8681526020019081526020015f205f9055600193505050506143a5565b5f9150505b92915050565b5f5f836001015f8481526020019081526020015f20541415905092915050565b5f6a636f6e736f6c652e6c6f6790505f5f835160208501845afa505050565b6144eb819050919050565b50805461440190614efa565b5f825580601f10614412575061442f565b601f0160209004905f5260205f209081019061442e91906144f5565b5b50565b828054828255905f5260205f209081019282156144a8579160200282015b828111156144a7578251825f6101000a81548173ffffffffffffffffffffffffffffffffffffffff021916908373ffffffffffffffffffffffffffffffffffffffff16021790555091602001919060010190614450565b5b5090506144b591906144f5565b5090565b5080545f8255905f5260205f20908101906144d491906144f5565b50565b60405180602001604052805f151581525090565b6144f3615d3c565b565b5b8082111561450c575f815f9055506001016144f6565b5090565b5f61ffff82169050919050565b61452681614510565b82525050565b5f63ffffffff82169050919050565b6145448161452c565b82525050565b5f8115159050919050565b61455e8161454a565b82525050565b5f60ff82169050919050565b61457981614564565b82525050565b5f610120820190506145935f83018c61451d565b6145a0602083018b61453b565b6145ad604083018a614555565b6145ba606083018961453b565b6145c7608083018861453b565b6145d460a083018761453b565b6145e160c083018661453b565b6145ee60e0830185614570565b6145fc610100830184614570565b9a9950505050505050505050565b5f604051905090565b5f5ffd5b5f5ffd5b5f819050919050565b61462d8161461b565b8114614637575f5ffd5b50565b5f8135905061464881614624565b92915050565b5f73ffffffffffffffffffffffffffffffffffffffff82169050919050565b5f6146778261464e565b9050919050565b6146878161466d565b8114614691575f5ffd5b50565b5f813590506146a28161467e565b92915050565b5f5ffd5b5f601f19601f8301169050919050565b7f4e487b71000000000000000000000000000000000000000000000000000000005f52604160045260245ffd5b6146f2826146ac565b810181811067ffffffffffffffff82111715614711576147106146bc565b5b80604052505050565b5f61472361460a565b905061472f82826146e9565b919050565b5f67ffffffffffffffff82111561474e5761474d6146bc565b5b602082029050602081019050919050565b5f5ffd5b5f61477561477084614734565b61471a565b905080838252602082019050602084028301858111156147985761479761475f565b5b835b818110156147c157806147ad888261463a565b84526020840193505060208101905061479a565b5050509392505050565b5f82601f8301126147df576147de6146a8565b5b81356147ef848260208601614763565b91505092915050565b5f5f5f6060848603121561480f5761480e614613565b5b5f61481c8682870161463a565b935050602061482d86828701614694565b925050604084013567ffffffffffffffff81111561484e5761484d614617565b5b61485a868287016147cb565b9150509250925092565b5f5f6040838503121561487a57614879614613565b5b5f6148878582860161463a565b925050602061489885828601614694565b9150509250929050565b5f5f604083850312156148b8576148b7614613565b5b5f6148c58582860161463a565b92505060206148d68582860161463a565b9150509250929050565b5f819050919050565b6148f2816148e0565b82525050565b5f60208201905061490b5f8301846148e9565b92915050565b5f6bffffffffffffffffffffffff82169050919050565b61493181614911565b82525050565b5f60208201905061494a5f830184614928565b92915050565b5f819050919050565b5f61497361496e6149698461464e565b614950565b61464e565b9050919050565b5f61498482614959565b9050919050565b5f6149958261497a565b9050919050565b6149a58161498b565b82525050565b5f6020820190506149be5f83018461499c565b92915050565b5f6149ce8261464e565b9050919050565b6149de816149c4565b81146149e8575f5ffd5b50565b5f813590506149f9816149d5565b92915050565b5f60208284031215614a1457614a13614613565b5b5f614a21848285016149eb565b91505092915050565b5f60208284031215614a3f57614a3e614613565b5b5f614a4c8482850161463a565b91505092915050565b5f602082019050614a685f830184614555565b92915050565b5f60208284031215614a8357614a82614613565b5b5f614a9084828501614694565b91505092915050565b5f602082019050614aac5f83018461451d565b92915050565b5f5f60408385031215614ac857614ac7614613565b5b5f614ad585828601614694565b9250506020614ae685828601614694565b9150509250929050565b5f614afa8261497a565b9050919050565b614b0a81614af0565b82525050565b5f602082019050614b235f830184614b01565b92915050565b614b328161466d565b82525050565b5f602082019050614b4b5f830184614b29565b92915050565b5f5ffd5b5f60c08284031215614b6a57614b69614b51565b5b81905092915050565b5f60208284031215614b8857614b87614613565b5b5f82013567ffffffffffffffff811115614ba557614ba4614617565b5b614bb184828501614b55565b91505092915050565b614bc38161461b565b82525050565b5f602082019050614bdc5f830184614bba565b92915050565b5f67ffffffffffffffff82169050919050565b614bfe81614be2565b82525050565b5f602082019050614c175f830184614bf5565b92915050565b5f5ffd5b5f5f83601f840112614c3657614c356146a8565b5b8235905067ffffffffffffffff811115614c5357614c52614c1d565b5b602083019150836001820283011115614c6f57614c6e61475f565b5b9250929050565b5f5f5f5f60608587031215614c8e57614c8d614613565b5b5f614c9b87828801614694565b9450506020614cac8782880161463a565b935050604085013567ffffffffffffffff811115614ccd57614ccc614617565b5b614cd987828801614c21565b925092505092959194509250565b5f81519050919050565b5f82825260208201905092915050565b5f819050602082019050919050565b614d198161461b565b82525050565b5f614d2a8383614d10565b60208301905092915050565b5f602082019050919050565b5f614d4c82614ce7565b614d568185614cf1565b9350614d6183614d01565b805f5b83811015614d91578151614d788882614d1f565b9750614d8383614d36565b925050600181019050614d64565b5085935050505092915050565b5f6020820190508181035f830152614db68184614d42565b905092915050565b5f81519050919050565b5f82825260208201905092915050565b5f819050602082019050919050565b614df08161466d565b82525050565b5f614e018383614de7565b60208301905092915050565b5f602082019050919050565b5f614e2382614dbe565b614e2d8185614dc8565b9350614e3883614dd8565b805f5b83811015614e68578151614e4f8882614df6565b9750614e5a83614e0d565b925050600181019050614e3b565b5085935050505092915050565b5f60a082019050614e885f830188614928565b614e956020830187614928565b614ea26040830186614bf5565b614eaf6060830185614b29565b8181036080830152614ec18184614e19565b90509695505050505050565b7f4e487b71000000000000000000000000000000000000000000000000000000005f52602260045260245ffd5b5f6002820490506001821680614f1157607f821691505b602082108103614f2457614f23614ecd565b5b50919050565b5f604082019050614f3d5f830185614bba565b614f4a6020830184614bba565b9392505050565b7f4e487b71000000000000000000000000000000000000000000000000000000005f52603260045260245ffd5b5f604082019050614f915f830185614bba565b8181036020830152614fa38184614d42565b90509392505050565b5f81519050919050565b5f81905092915050565b8281835e5f83830152505050565b5f614fd882614fac565b614fe28185614fb6565b9350614ff2818560208601614fc0565b80840191505092915050565b5f6150098284614fce565b915081905092915050565b7f4e487b71000000000000000000000000000000000000000000000000000000005f52601160045260245ffd5b5f61504b8261461b565b91506150568361461b565b925082820390508181111561506e5761506d615014565b5b92915050565b5f61507e8261461b565b91506150898361461b565b92508282026150978161461b565b915082820484148315176150ae576150ad615014565b5b5092915050565b5f6150bf8261461b565b91506150ca8361461b565b92508282019050808211156150e2576150e1615014565b5b92915050565b7f4e487b71000000000000000000000000000000000000000000000000000000005f52601260045260245ffd5b5f61511f8261461b565b915061512a8361461b565b92508261513a576151396150e8565b5b828204905092915050565b5f60a0820190506151585f830188614bba565b6151656020830187614928565b6151726040830186614555565b61517f6060830185614555565b61518c6080830184614555565b9695505050505050565b50565b5f6151a45f83614fb6565b91506151af82615196565b5f82019050919050565b5f6151c382615199565b9150819050919050565b5f6151e76151e26151dd84614911565b614950565b61461b565b9050919050565b6151f7816151cd565b82525050565b5f6060820190506152105f830186614b29565b61521d60208301856151ee565b61522a60408301846151ee565b949350505050565b5f61523c82614911565b915061524783614911565b925082820190506bffffffffffffffffffffffff81111561526b5761526a615014565b5b92915050565b5f61527b82614911565b915061528683614911565b925082820390506bffffffffffffffffffffffff8111156152aa576152a9615014565b5b92915050565b5f6040820190506152c35f830185614b29565b6152d060208301846151ee565b9392505050565b6152e08161454a565b81146152ea575f5ffd5b50565b5f815190506152fb816152d7565b92915050565b5f6020828403121561531657615315614613565b5b5f615323848285016152ed565b91505092915050565b5f82825260208201905092915050565b7f4d7573742062652070726f706f736564206f776e6572000000000000000000005f82015250565b5f61537060168361532c565b915061537b8261533c565b602082019050919050565b5f6020820190508181035f83015261539d81615364565b9050919050565b5f6153ae8261497a565b9050919050565b6153be816153a4565b82525050565b5f6040820190506153d75f8301856153b5565b6153e46020830184614bba565b9392505050565b5f6040820190506153fe5f830185614bba565b61540b6020830184614b29565b9392505050565b5f61541c8261461b565b91507fffffffffffffffffffffffffffffffffffffffffffffffffffffffffffffffff820361544e5761544d615014565b5b600182019050919050565b5f5ffd5b5f5ffd5b5f5ffd5b5f5f8335600160200384360303811261548157615480615459565b5b80840192508235915067ffffffffffffffff8211156154a3576154a261545d565b5b6020830192506001820236038313156154bf576154be615461565b5b509250929050565b6154d08161452c565b81146154da575f5ffd5b50565b5f813590506154eb816154c7565b92915050565b5f6020828403121561550657615505614613565b5b5f615513848285016154dd565b91505092915050565b5f819050815f5260205f209050919050565b5f6020601f8301049050919050565b5f82821b905092915050565b5f600883026155787fffffffffffffffffffffffffffffffffffffffffffffffffffffffffffffffff8261553d565b615582868361553d565b95508019841693508086168417925050509392505050565b5f6155b46155af6155aa8461461b565b614950565b61461b565b9050919050565b5f819050919050565b6155cd8361559a565b6155e16155d9826155bb565b848454615549565b825550505050565b5f5f905090565b6155f86155e9565b6156038184846155c4565b505050565b5b818110156156265761561b5f826155f0565b600181019050615609565b5050565b601f82111561566b5761563c8161551c565b6156458461552e565b81016020851015615654578190505b6156686156608561552e565b830182615608565b50505b505050565b5f82821c905092915050565b5f61568b5f1984600802615670565b1980831691505092915050565b5f6156a3838361567c565b9150826002028217905092915050565b6156bc82614fac565b67ffffffffffffffff8111156156d5576156d46146bc565b5b6156df8254614efa565b6156ea82828561562a565b5f60209050601f83116001811461571b575f8415615709578287015190505b6157138582615698565b86555061577a565b601f1984166157298661551c565b5f5b828110156157505784890151825560018201915060208501945060208101905061572b565b8683101561576d5784890151615769601f89168261567c565b8355505b6001600288020188555050505b505050505050565b61578b81614510565b8114615795575f5ffd5b50565b5f813590506157a681615782565b92915050565b5f602082840312156157c1576157c0614613565b5b5f6157ce84828501615798565b91505092915050565b5f82825260208201905092915050565b5f6157f182614fac565b6157fb81856157d7565b935061580b818560208601614fc0565b615814816146ac565b840191505092915050565b5f60c0820190506158325f830189614bba565b61583f6020830188614bba565b61584c604083018761451d565b615859606083018661453b565b615866608083018561453b565b81810360a083015261587881846157e7565b9050979650505050505050565b5f8160601b9050919050565b5f61589b82615885565b9050919050565b5f6158ac82615891565b9050919050565b6158c46158bf8261466d565b6158a2565b82525050565b5f819050919050565b5f819050919050565b6158ed6158e8826158ca565b6158d3565b82525050565b5f8160c01b9050919050565b5f615909826158f3565b9050919050565b61592161591c82614be2565b6158ff565b82525050565b5f61593282876158b3565b60148201915061594282866158dc565b60208201915061595282856158b3565b6014820191506159628284615910565b60088201915081905095945050505050565b5f61597e82614be2565b915061598983614be2565b9250828201905067ffffffffffffffff8111156159a9576159a8615014565b5b92915050565b5f6040820190506159c25f830185614b29565b6159cf6020830184614b29565b9392505050565b7f4e487b71000000000000000000000000000000000000000000000000000000005f52603160045260245ffd5b5f81519050615a1181614624565b92915050565b5f60208284031215615a2c57615a2b614613565b5b5f615a3984828501615a03565b91505092915050565b5f604082019050615a555f830185614b29565b615a626020830184614bba565b9392505050565b7f4f6e6c792063616c6c61626c65206279206f776e6572000000000000000000005f82015250565b5f615a9d60168361532c565b9150615aa882615a69565b602082019050919050565b5f6020820190508181035f830152615aca81615a91565b9050919050565b5f82905092915050565b5f7fffffffff0000000000000000000000000000000000000000000000000000000082169050919050565b5f615b118383615ad1565b82615b1c8135615adb565b92506004821015615b5c57615b577fffffffff000000000000000000000000000000000000000000000000000000008360040360080261553d565b831692505b505092915050565b5f5ffd5b5f5ffd5b5f5f85851115615b7f57615b7e615b64565b5b83861115615b9057615b8f615b68565b5b6001850283019150848603905094509492505050565b5f5ffd5b5f81359050615bb8816152d7565b92915050565b5f60208284031215615bd357615bd2615ba6565b5b615bdd602061471a565b90505f615bec84828501615baa565b5f8301525092915050565b5f60208284031215615c0c57615c0b614613565b5b5f615c1984828501615bbe565b91505092915050565b615c2b8161454a565b82525050565b602082015f820151615c455f850182615c22565b50505050565b5f602082019050615c5e5f830184615c31565b92915050565b7f43616e6e6f74207472616e7366657220746f2073656c660000000000000000005f82015250565b5f615c9860178361532c565b9150615ca382615c64565b602082019050919050565b5f6020820190508181035f830152615cc581615c8c565b9050919050565b5f81519050919050565b5f615ce082615ccc565b615cea818561532c565b9350615cfa818560208601614fc0565b615d03816146ac565b840191505092915050565b5f6040820190508181035f830152615d268185615cd6565b9050615d356020830184614bba565b9392505050565b7f4e487b71000000000000000000000000000000000000000000000000000000005f52605160045260245ffdfea2646970667358221220c85c2579ebfb4911fc6fbec0f63871d1895380588db591175124621e8b3b911a64736f6c634300081c0033","linkReferences":{}},"methodIdentifiers":{"LINK()":"1b6b6d23","LINK_NATIVE_FEED()":"72e9d565","MAX_CONSUMERS()":"64d51a2a","acceptOwnership()":"79ba5097","acceptSubscriptionOwnerTransfer(uint256)":"b2a7cac5","addConsumer(uint256,address)":"bec4c08c","cancelSubscription(uint256,address)":"0ae09540","consumerIsAdded(uint256,address)":"953e9c75","createSubscription()":"a21a23e4","fulfillRandomWords(uint256,address)":"808974ff","fulfillRandomWordsWithOverride(uint256,address,uint256[])":"08e3898e","fundSubscription(uint256,uint256)":"115e3c0d","fundSubscriptionWithNative(uint256)":"95b55cfc","getActiveSubscriptionIds(uint256,uint256)":"aefb212f","getSubscription(uint256)":"dc311dd3","i_base_fee()":"1eebc117","i_gas_price()":"dcab3dcf","i_wei_per_unit_link()":"13478329","onTokenTransfer(address,uint256,bytes)":"a4c0ed36","owner()":"8da5cb5b","ownerCancelSubscription(uint256)":"aa433aff","pendingRequestExists(uint256)":"41af6c87","recoverFunds(address)":"e72f6e30","recoverNativeFunds(address)":"8402595e","removeConsumer(uint256,address)":"cb631797","requestRandomWords((bytes32,uint256,uint16,uint32,uint32,bytes))":"9b1c385e","requestSubscriptionOwnerTransfer(uint256,address)":"dac83d29","s_config()":"088070f5","s_currentSubNonce()":"9d40a6fd","s_totalBalance()":"86fe91c7","s_totalNativeBalance()":"18e3dd27","setConfig()":"8b673e7a","setLINKAndLINKNativeFeed(address,address)":"65982744","transferOwnership(address)":"f2fde38b","withdraw(address)":"51cff8d9","withdrawNative(address)":"2f622e6b"},"id":13}