{"abi":[{"type":"constructor","inputs":[{"name":"_baseFee","type":"uint96","internalType":"uint96"},{"name":"_gasPrice","type":"uint96","internalType":"uint96"},{"name":"_weiPerUnitLink","type":"int256","internalType":"int256"}],"stateMutability":"nonpayable"},{"type":"function","name":"LINK","inputs":[],"outputs":[{"name":"","type":"address","internalType":"contract LinkTokenInterface"}],"stateMutability":"view"},{"type":"function","name":"LINK_NATIVE_FEED","inputs":[],"outputs":[{"name":"","type":"address","internalType":"contract AggregatorV3Interface"}],"stateMutability":"view"},{"type":"function","name":"MAX_CONSUMERS","inputs":[],"outputs":[{"name":"","type":"uint16","internalType":"uint16"}],"stateMutability":"view"},{"type":"function","name":"acceptOwnership","inputs":[],"outputs":[],"stateMutability":"nonpayable"},{"type":"function","name":"acceptSubscriptionOwnerTransfer","inputs":[{"name":"subId","type":"uint256","internalType":"uint256"}],"outputs":[],"stateMutability":"nonpayable"},{"type":"function","name":"addConsumer","inputs":[{"name":"subId","type":"uint256","internalType":"uint256"},{"name":"consumer","type":"address","internalType":"address"}],"outputs":[],"stateMutability":"nonpayable"},{"type":"function","name":"cancelSubscription","inputs":[{"name":"_subId","type":"uint256","internalType":"uint256"},{"name":"_to","type":"address","internalType":"address"}],"outputs":[],"stateMutability":"nonpayable"},{"type":"function","name":"consumerIsAdded","inputs":[{"name":"_subId","type":"uint256","internalType":"uint256"},{"name":"_consumer","type":"address","internalType":"address"}],"outputs":[{"name":"","type":"bool","internalType":"bool"}],"stateMutability":"view"},{"type":"function","name":"createSubscription","inputs":[],"outputs":[{"name":"subId","type":"uint256","internalType":"uint256"}],"stateMutability":"nonpayable"},{"type":"function","name":"fulfillRandomWords","inputs":[{"name":"_requestId","type":"uint256","internalType":"uint256"},{"name":"_consumer","type":"address","internalType":"address"}],"outputs":[],"stateMutability":"nonpayable"},{"type":"function","name":"fulfillRandomWordsWithOverride","inputs":[{"name":"_requestId","type":"uint256","internalType":"uint256"},{"name":"_consumer","type":"address","internalType":"address"},{"name":"_words","type":"uint256[]","internalType":"uint256[]"}],"outputs":[],"stateMutability":"nonpayable"},{"type":"function","name":"fundSubscription","inputs":[{"name":"_subId","type":"uint256","internalType":"uint256"},{"name":"_amount","type":"uint256","internalType":"uint256"}],"outputs":[],"stateMutability":"nonpayable"},{"type":"function","name":"fundSubscriptionWithNative","inputs":[{"name":"subId","type":"uint256","internalType":"uint256"}],"outputs":[],"stateMutability":"payable"},{"type":"function","name":"getActiveSubscriptionIds","inputs":[{"name":"startIndex","type":"uint256","internalType":"uint256"},{"name":"maxCount","type":"uint256","internalType":"uint256"}],"outputs":[{"name":"ids","type":"uint256[]","internalType":"uint256[]"}],"stateMutability":"view"},{"type":"function","name":"getSubscription","inputs":[{"name":"subId","type":"uint256","internalType":"uint256"}],"outputs":[{"name":"balance","type":"uint96","internalType":"uint96"},{"name":"nativeBalance","type":"uint96","internalType":"uint96"},{"name":"reqCount","type":"uint64","internalType":"uint64"},{"name":"subOwner","type":"address","internalType":"address"},{"name":"consumers","type":"address[]","internalType":"address[]"}],"stateMutability":"view"},{"type":"function","name":"i_base_fee","inputs":[],"outputs":[{"name":"","type":"uint96","internalType":"uint96"}],"stateMutability":"view"},{"type":"function","name":"i_gas_price","inputs":[],"outputs":[{"name":"","type":"uint96","internalType":"uint96"}],"stateMutability":"view"},{"type":"function","name":"i_wei_per_unit_link","inputs":[],"outputs":[{"name":"","type":"int256","internalType":"int256"}],"stateMutability":"view"},{"type":"function","name":"onTokenTransfer","inputs":[{"name":"","type":"address","internalType":"address"},{"name":"amount","type":"uint256","internalType":"uint256"},{"name":"data","type":"bytes","internalType":"bytes"}],"outputs":[],"stateMutability":"nonpayable"},{"type":"function","name":"owner","inputs":[],"outputs":[{"name":"","type":"address","internalType":"address"}],"stateMutability":"view"},{"type":"function","name":"ownerCancelSubscription","inputs":[{"name":"subId","type":"uint256","internalType":"uint256"}],"outputs":[],"stateMutability":"nonpayable"},{"type":"function","name":"pendingRequestExists","inputs":[{"name":"","type":"uint256","internalType":"uint256"}],"outputs":[{"name":"","type":"bool","internalType":"bool"}],"stateMutability":"pure"},{"type":"function","name":"recoverFunds","inputs":[{"name":"to","type":"address","internalType":"address"}],"outputs":[],"stateMutability":"nonpayable"},{"type":"function","name":"recoverNativeFunds","inputs":[{"name":"to","type":"address","internalType":"address payable"}],"outputs":[],"stateMutability":"nonpayable"},{"type":"function","name":"removeConsumer","inputs":[{"name":"_subId","type":"uint256","internalType":"uint256"},{"name":"_consumer","type":"address","internalType":"address"}],"outputs":[],"stateMutability":"nonpayable"},{"type":"function","name":"requestRandomWords","inputs":[{"name":"_req","type":"tuple","internalType":"struct VRFV2PlusClient.RandomWordsRequest","components":[{"name":"keyHash","type":"bytes32","internalType":"bytes32"},{"name":"subId","type":"uint256","internalType":"uint256"},{"name":"requestConfirmations","type":"uint16","internalType":"uint16"},{"name":"callbackGasLimit","type":"uint32","internalType":"uint32"},{"name":"numWords","type":"uint32","internalType":"uint32"},{"name":"extraArgs","type":"bytes","internalType":"bytes"}]}],"outputs":[{"name":"","type":"uint256","internalType":"uint256"}],"stateMutability":"nonpayable"},{"type":"function","name":"requestSubscriptionOwnerTransfer","inputs":[{"name":"subId","type":"uint256","internalType":"uint256"},{"name":"newOwner","type":"address","internalType":"address"}],"outputs":[],"stateMutability":"nonpayable"},{"type":"function","name":"s_config","inputs":[],"outputs":[{"name":"minimumRequestConfirmations","type":"uint16","internalType":"uint16"},{"name":"maxGasLimit","type":"uint32","internalType":"uint32"},{"name":"reentrancyLock","type":"bool","internalType":"bool"},{"name":"stalenessSeconds","type":"uint32","internalType":"uint32"},{"name":"gasAfterPaymentCalculation","type":"uint32","internalType":"uint32"},{"name":"fulfillmentFlatFeeNativePPM","type":"uint32","internalType":"uint32"},{"name":"fulfillmentFlatFeeLinkDiscountPPM","type":"uint32","internalType":"uint32"},{"name":"nativePremiumPercentage","type":"uint8","internalType":"uint8"},{"name":"linkPremiumPercentage","type":"uint8","internalType":"uint8"}],"stateMutability":"view"},{"type":"function","name":"s_currentSubNonce","inputs":[],"outputs":[{"name":"","type":"uint64","internalType":"uint64"}],"stateMutability":"view"},{"type":"function","name":"s_totalBalance","inputs":[],"outputs":[{"name":"","type":"uint96","internalType":"uint96"}],"stateMutability":"view"},{"type":"function","name":"s_totalNativeBalance","inputs":[],"outputs":[{"name":"","type":"uint96","internalType":"uint96"}],"stateMutability":"view"},{"type":"function","name":"setConfig","inputs":[],"outputs":[],"stateMutability":"nonpayable"},{"type":"function","name":"setLINKAndLINKNativeFeed","inputs":[{"name":"link","type":"address","internalType":"address"},{"name":"linkNativeFeed","type":"address","internalType":"address"}],"outputs":[],"stateMutability":"nonpayable"},{"type":"function","name":"transferOwnership","inputs":[{"name":"to","type":"address","internalType":"address"}],"outputs":[],"stateMutability":"nonpayable"},{"type":"function","name":"withdraw","inputs":[{"name":"recipient","type":"address","internalType":"address"}],"outputs":[],"stateMutability":"nonpayable"},{"type":"function","name":"withdrawNative","inputs":[{"name":"recipient","type":"address","internalType":"address payable"}],"outputs":[],"stateMutability":"nonpayable"},{"type":"event","name":"ConfigSet","inputs":[],"anonymous":false},{"type":"event","name":"FundsRecovered","inputs":[{"name":"to","type":"address","indexed":false,"internalType":"address"},{"name":"amount","type":"uint256","indexed":false,"internalType":"uint256"}],"anonymous":false},{"type":"event","name":"NativeFundsRecovered","inputs":[{"name":"to","type":"address","indexed":false,"internalType":"address"},{"name":"amount","type":"uint256","indexed":false,"internalType":"uint256"}],"anonymous":false},{"type":"event","name":"OwnershipTransferRequested","inputs":[{"name":"from","type":"address","indexed":true,"internalType":"address"},{"name":"to","type":"address","indexed":true,"internalType":"address"}],"anonymous":false},{"type":"event","name":"OwnershipTransferred","inputs":[{"name":"from","type":"address","indexed":true,"internalType":"address"},{"name":"to","type":"address","indexed":true,"internalType":"address"}],"anonymous":false},{"type":"event","name":"RandomWordsFulfilled","inputs":[{"name":"requestId","type":"uint256","indexed":true,"internalType":"uint256"},{"name":"outputSeed","type":"uint256","indexed":false,"internalType":"uint256"},{"name":"subId","type":"uint256","indexed":true,"internalType":"uint256"},{"name":"payment","type":"uint96","indexed":false,"internalType":"uint96"},{"name":"nativePayment","type":"bool","indexed":false,"internalType":"bool"},{"name":"success","type":"bool","indexed":false,"internalType":"bool"},{"name":"onlyPremium","type":"bool","indexed":false,"internalType":"bool"}],"anonymous":false},{"type":"event","name":"RandomWordsRequested","inputs":[{"name":"keyHash","type":"bytes32","indexed":true,"internalType":"bytes32"},{"name":"requestId","type":"uint256","indexed":false,"internalType":"uint256"},{"name":"preSeed","type":"uint256","indexed":false,"internalType":"uint256"},{"name":"subId","type":"uint256","indexed":true,"internalType":"uint256"},{"name":"minimumRequestConfirmations","type":"uint16","indexed":false,"internalType":"uint16"},{"name":"callbackGasLimit","type":"uint32","indexed":false,"internalType":"uint32"},{"name":"numWords","type":"uint32","indexed":false,"internalType":"uint32"},{"name":"extraArgs","type":"bytes","indexed":false,"internalType":"bytes"},{"name":"sender","type":"address","indexed":true,"internalType":"address"}],"anonymous":false},{"type":"event","name":"SubscriptionCanceled","inputs":[{"name":"subId","type":"uint256","indexed":true,"internalType":"uint256"},{"name":"to","type":"address","indexed":false,"internalType":"address"},{"name":"amountLink","type":"uint256","indexed":false,"internalType":"uint256"},{"name":"amountNative","type":"uint256","indexed":false,"internalType":"uint256"}],"anonymous":false},{"type":"event","name":"SubscriptionConsumerAdded","inputs":[{"name":"subId","type":"uint256","indexed":true,"internalType":"uint256"},{"name":"consumer","type":"address","indexed":false,"internalType":"address"}],"anonymous":false},{"type":"event","name":"SubscriptionConsumerRemoved","inputs":[{"name":"subId","type":"uint256","indexed":true,"internalType":"uint256"},{"name":"consumer","type":"address","indexed":false,"internalType":"address"}],"anonymous":false},{"type":"event","name":"SubscriptionCreated","inputs":[{"name":"subId","type":"uint256","indexed":true,"internalType":"uint256"},{"name":"owner","type":"address","indexed":false,"internalType":"address"}],"anonymous":false},{"type":"event","name":"SubscriptionFunded","inputs":[{"name":"subId","type":"uint256","indexed":true,"internalType":"uint256"},{"name":"oldBalance","type":"uint256","indexed":false,"internalType":"uint256"},{"name":"newBalance","type":"uint256","indexed":false,"internalType":"uint256"}],"anonymous":false},{"type":"event","name":"SubscriptionFundedWithNative","inputs":[{"name":"subId","type":"uint256","indexed":true,"internalType":"uint256"},{"name":"oldNativeBalance","type":"uint256","indexed":false,"internalType":"uint256"},{"name":"newNativeBalance","type":"uint256","indexed":false,"internalType":"uint256"}],"anonymous":false},{"type":"event","name":"SubscriptionOwnerTransferRequested","inputs":[{"name":"subId","type":"uint256","indexed":true,"internalType":"uint256"},{"name":"from","type":"address","indexed":false,"internalType":"address"},{"name":"to","type":"address","indexed":false,"internalType":"address"}],"anonymous":false},{"type":"event","name":"SubscriptionOwnerTransferred","inputs":[{"name":"subId","type":"uint256","indexed":true,"internalType":"uint256"},{"name":"from","type":"address","indexed":false,"internalType":"address"},{"name":"to","type":"address","indexed":false,"internalType":"address"}],"anonymous":false},{"type":"error","name":"BalanceInvariantViolated","inputs":[{"name":"internalBalance","type":"uint256","internalType":"uint256"},{"name":"externalBalance","type":"uint256","internalType":"uint256"}]},{"type":"error","name":"FailedToSendNative","inputs":[]},{"type":"error","name":"FailedToTransferLink","inputs":[]},{"type":"error","name":"IndexOutOfRange","inputs":[]},{"type":"error","name":"InsufficientBalance","inputs":[]},{"type":"error","name":"InvalidCalldata","inputs":[]},{"type":"error","name":"InvalidConsumer","inputs":[{"name":"subId","type":"uint256","internalType":"uint256"},{"name":"consumer","type":"address","internalType":"address"}]},{"type":"error","name":"InvalidExtraArgsTag","inputs":[]},{"type":"error","name":"InvalidRandomWords","inputs":[]},{"type":"error","name":"InvalidRequest","inputs":[]},{"type":"error","name":"InvalidSubscription","inputs":[]},{"type":"error","name":"LinkAlreadySet","inputs":[]},{"type":"error","name":"LinkNotSet","inputs":[]},{"type":"error","name":"MustBeRequestedOwner","inputs":[{"name":"proposedOwner","type":"address","internalType":"address"}]},{"type":"error","name":"MustBeSubOwner","inputs":[{"name":"owner","type":"address","internalType":"address"}]},{"type":"error","name":"NotImplemented","inputs":[]},{"type":"error","name":"OnlyCallableFromLink","inputs":[]},{"type":"error","name":"PendingRequestExists","inputs":[]},{"type":"error","name":"Reentrant","inputs":[]},{"type":"error","name":"TooManyConsumers","inputs":[]}],"bytecode":{"object":"0x60e06040526001600e556064600f55348015610019575f5ffd5b5060405161633b38038061633b833981810160405281019061003b91906105b3565b33805f5f73ffffffffffffffffffffffffffffffffffffffff168273ffffffffffffffffffffffffffffffffffffffff16036100ac576040517f08c379a00000000000000000000000000000000000000000000000000000000081526004016100a39061065d565b60405180910390fd5b815f5f6101000a81548173ffffffffffffffffffffffffffffffffffffffff021916908373ffffffffffffffffffffffffffffffffffffffff1602179055505f73ffffffffffffffffffffffffffffffffffffffff168173ffffffffffffffffffffffffffffffffffffffff161461012e5761012d8161019760201b60201c565b5b505050826bffffffffffffffffffffffff166080816bffffffffffffffffffffffff1681525050816bffffffffffffffffffffffff1660a0816bffffffffffffffffffffffff16815250508060c0818152505061018f6102c260201b60201c565b50505061074b565b3373ffffffffffffffffffffffffffffffffffffffff168173ffffffffffffffffffffffffffffffffffffffff1603610205576040517f08c379a00000000000000000000000000000000000000000000000000000000081526004016101fc906106c5565b60405180910390fd5b8060015f6101000a81548173ffffffffffffffffffffffffffffffffffffffff021916908373ffffffffffffffffffffffffffffffffffffffff1602179055508073ffffffffffffffffffffffffffffffffffffffff165f5f9054906101000a900473ffffffffffffffffffffffffffffffffffffffff1673ffffffffffffffffffffffffffffffffffffffff167fed8889f560326eb138920d842192f0eb3dd22b4f139c87a2c57538e05bae127860405160405180910390a350565b6102d06104ab60201b60201c565b6040518061012001604052805f61ffff1681526020015f63ffffffff1681526020015f151581526020015f63ffffffff1681526020015f63ffffffff1681526020015f63ffffffff1681526020015f63ffffffff1681526020015f60ff1681526020015f60ff16815250600c5f820151815f015f6101000a81548161ffff021916908361ffff1602179055506020820151815f0160026101000a81548163ffffffff021916908363ffffffff1602179055506040820151815f0160066101000a81548160ff0219169083151502179055506060820151815f0160076101000a81548163ffffffff021916908363ffffffff1602179055506080820151815f01600b6101000a81548163ffffffff021916908363ffffffff16021790555060a0820151815f01600f6101000a81548163ffffffff021916908363ffffffff16021790555060c0820151815f0160136101000a81548163ffffffff021916908363ffffffff16021790555060e0820151815f0160176101000a81548160ff021916908360ff160217905550610100820151815f0160186101000a81548160ff021916908360ff1602179055509050507f4b2974a542484cba2783812ff8033f7fc682cac2fe0905c28c5e27869b3155be60405160405180910390a1565b5f5f9054906101000a900473ffffffffffffffffffffffffffffffffffffffff1673ffffffffffffffffffffffffffffffffffffffff163373ffffffffffffffffffffffffffffffffffffffff1614610539576040517f08c379a00000000000000000000000000000000000000000000000000000000081526004016105309061072d565b60405180910390fd5b565b5f5ffd5b5f6bffffffffffffffffffffffff82169050919050565b61055f8161053f565b8114610569575f5ffd5b50565b5f8151905061057a81610556565b92915050565b5f819050919050565b61059281610580565b811461059c575f5ffd5b50565b5f815190506105ad81610589565b92915050565b5f5f5f606084860312156105ca576105c961053b565b5b5f6105d78682870161056c565b93505060206105e88682870161056c565b92505060406105f98682870161059f565b9150509250925092565b5f82825260208201905092915050565b7f43616e6e6f7420736574206f776e657220746f207a65726f00000000000000005f82015250565b5f610647601883610603565b915061065282610613565b602082019050919050565b5f6020820190508181035f8301526106748161063b565b9050919050565b7f43616e6e6f74207472616e7366657220746f2073656c660000000000000000005f82015250565b5f6106af601783610603565b91506106ba8261067b565b602082019050919050565b5f6020820190508181035f8301526106dc816106a3565b9050919050565b7f4f6e6c792063616c6c61626c65206279206f776e6572000000000000000000005f82015250565b5f610717601683610603565b9150610722826106e3565b602082019050919050565b5f6020820190508181035f8301526107448161070b565b9050919050565b60805160a05160c051615bb161078a5f395f8181610d1a015261110101525f8181610c95015261312201525f8181610cda01526111680152615bb15ff3fe60806040526004361061020e575f3560e01c80638b673e7a11610117578063aefb212f1161009f578063dac83d291161006e578063dac83d2914610728578063dc311dd314610750578063dcab3dcf14610790578063e72f6e30146107ba578063f2fde38b146107e25761020e565b8063aefb212f14610674578063b2a7cac5146106b0578063bec4c08c146106d8578063cb631797146107005761020e565b80639b1c385e116100e65780639b1c385e146105945780639d40a6fd146105d0578063a21a23e4146105fa578063a4c0ed3614610624578063aa433aff1461064c5761020e565b80638b673e7a146104fc5780638da5cb5b14610512578063953e9c751461053c57806395b55cfc146105785761020e565b806341af6c871161019a57806372e9d5651161016957806372e9d5651461044257806379ba50971461046c578063808974ff146104825780638402595e146104aa57806386fe91c7146104d25761020e565b806341af6c871461038c57806351cff8d9146103c857806364d51a2a146103f0578063659827441461041a5761020e565b806313478329116101e157806313478329146102bc57806318e3dd27146102e65780631b6b6d23146103105780631eebc1171461033a5780632f622e6b146103645761020e565b8063088070f51461021257806308e3898e146102445780630ae095401461026c578063115e3c0d14610294575b5f5ffd5b34801561021d575f5ffd5b5061022661080a565b60405161023b9998979695949392919061442e565b60405180910390f35b34801561024f575f5ffd5b5061026a600480360381019061026591906146a7565b6108c1565b005b348015610277575f5ffd5b50610292600480360381019061028d9190614713565b610e13565b005b34801561029f575f5ffd5b506102ba60048036038101906102b59190614751565b610f25565b005b3480156102c7575f5ffd5b506102d06110ff565b6040516102dd91906147a7565b60405180910390f35b3480156102f1575f5ffd5b506102fa611123565b60405161030791906147e6565b60405180910390f35b34801561031b575f5ffd5b50610324611141565b604051610331919061485a565b60405180910390f35b348015610345575f5ffd5b5061034e611166565b60405161035b91906147e6565b60405180910390f35b34801561036f575f5ffd5b5061038a600480360381019061038591906148ae565b61118a565b005b348015610397575f5ffd5b506103b260048036038101906103ad91906148d9565b611275565b6040516103bf9190614904565b60405180910390f35b3480156103d3575f5ffd5b506103ee60048036038101906103e9919061491d565b6112a8565b005b3480156103fb575f5ffd5b506104046114a2565b6040516104119190614948565b60405180910390f35b348015610425575f5ffd5b50610440600480360381019061043b9190614961565b6114a7565b005b34801561044d575f5ffd5b506104566115b9565b60405161046391906149bf565b60405180910390f35b348015610477575f5ffd5b506104806115de565b005b34801561048d575f5ffd5b506104a860048036038101906104a39190614713565b61176d565b005b3480156104b5575f5ffd5b506104d060048036038101906104cb91906148ae565b6117cc565b005b3480156104dd575f5ffd5b506104e6611942565b6040516104f391906147e6565b60405180910390f35b348015610507575f5ffd5b5061051061195f565b005b34801561051d575f5ffd5b50610526611b42565b60405161053391906149e7565b60405180910390f35b348015610547575f5ffd5b50610562600480360381019061055d9190614713565b611b69565b60405161056f9190614904565b60405180910390f35b610592600480360381019061058d91906148d9565b611bcd565b005b34801561059f575f5ffd5b506105ba60048036038101906105b59190614a22565b611d55565b6040516105c79190614a78565b60405180910390f35b3480156105db575f5ffd5b506105e461206f565b6040516105f19190614ab3565b60405180910390f35b348015610605575f5ffd5b5061060e612088565b60405161061b9190614a78565b60405180910390f35b34801561062f575f5ffd5b5061064a60048036038101906106459190614b25565b6123a9565b005b348015610657575f5ffd5b50610672600480360381019061066d91906148d9565b612607565b005b34801561067f575f5ffd5b5061069a60048036038101906106959190614751565b61265c565b6040516106a79190614c4d565b60405180910390f35b3480156106bb575f5ffd5b506106d660048036038101906106d191906148d9565b612788565b005b3480156106e3575f5ffd5b506106fe60048036038101906106f99190614713565b612986565b005b34801561070b575f5ffd5b5061072660048036038101906107219190614713565b612b15565b005b348015610733575f5ffd5b5061074e60048036038101906107499190614713565b612eb1565b005b34801561075b575f5ffd5b50610776600480360381019061077191906148d9565b612fb0565b604051610787959493929190614d24565b60405180910390f35b34801561079b575f5ffd5b506107a4613120565b6040516107b191906147e6565b60405180910390f35b3480156107c5575f5ffd5b506107e060048036038101906107db919061491d565b613144565b005b3480156107ed575f5ffd5b506108086004803603810190610803919061491d565b613409565b005b600c805f015f9054906101000a900461ffff1690805f0160029054906101000a900463ffffffff1690805f0160069054906101000a900460ff1690805f0160079054906101000a900463ffffffff1690805f01600b9054906101000a900463ffffffff1690805f01600f9054906101000a900463ffffffff1690805f0160139054906101000a900463ffffffff1690805f0160179054906101000a900460ff1690805f0160189054906101000a900460ff16905089565b5f5a90505f60105f8681526020019081526020015f205f015403610911576040517f41abc80100000000000000000000000000000000000000000000000000000000815260040160405180910390fd5b5f60105f8681526020019081526020015f206040518060800160405290815f8201548152602001600182015f9054906101000a900463ffffffff1663ffffffff1663ffffffff1681526020016001820160049054906101000a900463ffffffff1663ffffffff1663ffffffff16815260200160028201805461099290614da9565b80601f01602080910402602001604051908101604052809291908181526020018280546109be90614da9565b8015610a095780601f106109e057610100808354040283529160200191610a09565b820191905f5260205f20905b8154815290600101906020018083116109ec57829003601f168201915b50505050508152505090505f835103610ae557806040015163ffffffff1667ffffffffffffffff811115610a4057610a3f61456b565b5b604051908082528060200260200182016040528015610a6e5781602001602082028036833780820191505090505b5092505f5f90505b816040015163ffffffff16811015610adf578581604051602001610a9b929190614dd9565b604051602081830303815290604052805190602001205f1c848281518110610ac657610ac5614e00565b5b6020026020010181815250508080600101915050610a76565b50610b2a565b806040015163ffffffff16835114610b29576040517f3f3df5b600000000000000000000000000000000000000000000000000000000815260040160405180910390fd5b5b5f5f631fe543e360e01b8786604051602401610b47929190614e2d565b604051602081830303815290604052907bffffffffffffffffffffffffffffffffffffffffffffffffffffffff19166020820180517bffffffffffffffffffffffffffffffffffffffffffffffffffffffff838183161783525050505090506001600c5f0160066101000a81548160ff0219169083151502179055505f8673ffffffffffffffffffffffffffffffffffffffff16846020015163ffffffff1683604051610bf49190614ead565b5f604051808303815f8787f1925050503d805f8114610c2e576040519150601f19603f3d011682016040523d82523d5f602084013e610c33565b606091505b505090505f600c5f0160066101000a81548160ff0219169083151502179055505f600185606001516001876060015151610c6d9190614ef0565b81518110610c7e57610c7d614e00565b5b602001015160f81c60f81b60f81c60ff161490505f7f00000000000000000000000000000000000000000000000000000000000000006bffffffffffffffffffffffff165a88610cce9190614ef0565b610cd89190614f23565b7f00000000000000000000000000000000000000000000000000000000000000006bffffffffffffffffffffffff16610d119190614f64565b905081610d5a577f000000000000000000000000000000000000000000000000000000000000000081670de0b6b3a7640000610d4d9190614f23565b610d579190614fc4565b90505b5f819050610d6c8184895f015161341d565b60105f8c81526020019081526020015f205f5f82015f9055600182015f6101000a81549063ffffffff02191690556001820160046101000a81549063ffffffff0219169055600282015f610dc091906142ae565b5050865f01518b7faeb4b4786571e184246d39587f659abf0e26f41f6a3358692250382c0cdb47b78d8487895f604051610dfe959493929190614ff4565b60405180910390a35050505050505050505050565b81610e1d81613654565b610e25613707565b5f5f610e3085613752565b915091505f8473ffffffffffffffffffffffffffffffffffffffff16826bffffffffffffffffffffffff16604051610e6790615068565b5f6040518083038185875af1925050503d805f8114610ea1576040519150601f19603f3d011682016040523d82523d5f602084013e610ea6565b606091505b5050905080610ee1576040517f950b247900000000000000000000000000000000000000000000000000000000815260040160405180910390fd5b857f8c74ce8b8cf87f5eb001275c8be27eb34ea2b62bfab6814fcc62192bb63e81c4868585604051610f15939291906150ac565b60405180910390a2505050505050565b5f73ffffffffffffffffffffffffffffffffffffffff1660055f8481526020019081526020015f205f015f9054906101000a900473ffffffffffffffffffffffffffffffffffffffff1673ffffffffffffffffffffffffffffffffffffffff1603610fbc576040517f1f6a65b600000000000000000000000000000000000000000000000000000000815260040160405180910390fd5b5f60065f8481526020019081526020015f205f015f9054906101000a90046bffffffffffffffffffffffff166bffffffffffffffffffffffff1690508160065f8581526020019081526020015f205f015f8282829054906101000a90046bffffffffffffffffffffffff1661103191906150e1565b92506101000a8154816bffffffffffffffffffffffff02191690836bffffffffffffffffffffffff16021790555081600a5f8282829054906101000a90046bffffffffffffffffffffffff1661108791906150e1565b92506101000a8154816bffffffffffffffffffffffff02191690836bffffffffffffffffffffffff160217905550827f1ced9348ff549fceab2ac57cd3a9de38edaaab274b725ee82c23e8fc8c4eec7a8284846110e49190614f64565b6040516110f2929190614dd9565b60405180910390a2505050565b7f000000000000000000000000000000000000000000000000000000000000000081565b600a600c9054906101000a90046bffffffffffffffffffffffff1681565b60025f9054906101000a900473ffffffffffffffffffffffffffffffffffffffff1681565b7f000000000000000000000000000000000000000000000000000000000000000081565b611192613707565b61119a613a82565b5f600b600c9054906101000a90046bffffffffffffffffffffffff1690506111d15f826bffffffffffffffffffffffff1611613b12565b5f600b600c6101000a8154816bffffffffffffffffffffffff02191690836bffffffffffffffffffffffff16021790555080600a600c8282829054906101000a90046bffffffffffffffffffffffff1661122b9190615120565b92506101000a8154816bffffffffffffffffffffffff02191690836bffffffffffffffffffffffff16021790555061127182826bffffffffffffffffffffffff16613b4c565b5050565b5f6040517fd623472500000000000000000000000000000000000000000000000000000000815260040160405180910390fd5b6112b0613707565b6112b8613a82565b5f73ffffffffffffffffffffffffffffffffffffffff1660025f9054906101000a900473ffffffffffffffffffffffffffffffffffffffff1673ffffffffffffffffffffffffffffffffffffffff160361133e576040517fc1f0c0a100000000000000000000000000000000000000000000000000000000815260040160405180910390fd5b5f600b5f9054906101000a90046bffffffffffffffffffffffff1690506113745f826bffffffffffffffffffffffff1611613b12565b5f600b5f6101000a8154816bffffffffffffffffffffffff02191690836bffffffffffffffffffffffff16021790555080600a5f8282829054906101000a90046bffffffffffffffffffffffff166113cc9190615120565b92506101000a8154816bffffffffffffffffffffffff02191690836bffffffffffffffffffffffff16021790555061149e60025f9054906101000a900473ffffffffffffffffffffffffffffffffffffffff1673ffffffffffffffffffffffffffffffffffffffff1663a9059cbb84846040518363ffffffff1660e01b815260040161145992919061515f565b6020604051808303815f875af1158015611475573d5f5f3e3d5ffd5b505050506040513d601f19601f8201168201806040525081019061149991906151b0565b613b12565b5050565b606481565b6114af613a82565b5f73ffffffffffffffffffffffffffffffffffffffff1660025f9054906101000a900473ffffffffffffffffffffffffffffffffffffffff1673ffffffffffffffffffffffffffffffffffffffff1614611535576040517f2d118a6e00000000000000000000000000000000000000000000000000000000815260040160405180910390fd5b8160025f6101000a81548173ffffffffffffffffffffffffffffffffffffffff021916908373ffffffffffffffffffffffffffffffffffffffff1602179055508060035f6101000a81548173ffffffffffffffffffffffffffffffffffffffff021916908373ffffffffffffffffffffffffffffffffffffffff1602179055505050565b60035f9054906101000a900473ffffffffffffffffffffffffffffffffffffffff1681565b60015f9054906101000a900473ffffffffffffffffffffffffffffffffffffffff1673ffffffffffffffffffffffffffffffffffffffff163373ffffffffffffffffffffffffffffffffffffffff161461166d576040517f08c379a000000000000000000000000000000000000000000000000000000000815260040161166490615235565b60405180910390fd5b5f5f5f9054906101000a900473ffffffffffffffffffffffffffffffffffffffff169050335f5f6101000a81548173ffffffffffffffffffffffffffffffffffffffff021916908373ffffffffffffffffffffffffffffffffffffffff1602179055505f60015f6101000a81548173ffffffffffffffffffffffffffffffffffffffff021916908373ffffffffffffffffffffffffffffffffffffffff1602179055503373ffffffffffffffffffffffffffffffffffffffff168173ffffffffffffffffffffffffffffffffffffffff167f8be0079c531659141344cd1fd0a4f28419497f9722a3daafe3b4186f6b6457e060405160405180910390a350565b611775613707565b6117c882825f67ffffffffffffffff8111156117945761179361456b565b5b6040519080825280602002602001820160405280156117c25781602001602082028036833780820191505090505b506108c1565b5050565b6117d4613a82565b5f4790505f600a600c9054906101000a90046bffffffffffffffffffffffff166bffffffffffffffffffffffff1690508181111561184b5780826040517fa99da302000000000000000000000000000000000000000000000000000000008152600401611842929190614dd9565b60405180910390fd5b8181101561193d575f81836118609190614ef0565b90505f8473ffffffffffffffffffffffffffffffffffffffff168260405161188790615068565b5f6040518083038185875af1925050503d805f81146118c1576040519150601f19603f3d011682016040523d82523d5f602084013e6118c6565b606091505b5050905080611901576040517f950b247900000000000000000000000000000000000000000000000000000000815260040160405180910390fd5b7f4aed7c8eed0496c8c19ea2681fcca25741c1602342e38b045d9f1e8e905d2e9c8583604051611932929190615273565b60405180910390a150505b505050565b600a5f9054906101000a90046bffffffffffffffffffffffff1681565b611967613a82565b6040518061012001604052805f61ffff1681526020015f63ffffffff1681526020015f151581526020015f63ffffffff1681526020015f63ffffffff1681526020015f63ffffffff1681526020015f63ffffffff1681526020015f60ff1681526020015f60ff16815250600c5f820151815f015f6101000a81548161ffff021916908361ffff1602179055506020820151815f0160026101000a81548163ffffffff021916908363ffffffff1602179055506040820151815f0160066101000a81548160ff0219169083151502179055506060820151815f0160076101000a81548163ffffffff021916908363ffffffff1602179055506080820151815f01600b6101000a81548163ffffffff021916908363ffffffff16021790555060a0820151815f01600f6101000a81548163ffffffff021916908363ffffffff16021790555060c0820151815f0160136101000a81548163ffffffff021916908363ffffffff16021790555060e0820151815f0160176101000a81548160ff021916908360ff160217905550610100820151815f0160186101000a81548160ff021916908360ff1602179055509050507f4b2974a542484cba2783812ff8033f7fc682cac2fe0905c28c5e27869b3155be60405160405180910390a1565b5f5f5f9054906101000a900473ffffffffffffffffffffffffffffffffffffffff16905090565b5f60045f8373ffffffffffffffffffffffffffffffffffffffff1673ffffffffffffffffffffffffffffffffffffffff1681526020019081526020015f205f8481526020019081526020015f205f015f9054906101000a900460ff16905092915050565b611bd5613707565b611c1060055f8381526020019081526020015f205f015f9054906101000a900473ffffffffffffffffffffffffffffffffffffffff16613bf0565b5f60065f8381526020019081526020015f205f01600c9054906101000a90046bffffffffffffffffffffffff166bffffffffffffffffffffffff1690503460065f8481526020019081526020015f205f01600c8282829054906101000a90046bffffffffffffffffffffffff16611c8791906150e1565b92506101000a8154816bffffffffffffffffffffffff02191690836bffffffffffffffffffffffff16021790555034600a600c8282829054906101000a90046bffffffffffffffffffffffff16611cde91906150e1565b92506101000a8154816bffffffffffffffffffffffff02191690836bffffffffffffffffffffffff160217905550817f7603b205d03651ee812f803fccde89f1012e545a9c99f0abfea9cedd0fd8e902823484611d3b9190614f64565b604051611d49929190614dd9565b60405180910390a25050565b5f611d5e613707565b816020013533611d6e8282611b69565b611db15781816040517f79bfd401000000000000000000000000000000000000000000000000000000008152600401611da892919061529a565b60405180910390fd5b5f846020013590505f73ffffffffffffffffffffffffffffffffffffffff1660055f8381526020019081526020015f205f015f9054906101000a900473ffffffffffffffffffffffffffffffffffffffff1673ffffffffffffffffffffffffffffffffffffffff1603611e50576040517f1f6a65b600000000000000000000000000000000000000000000000000000000815260040160405180910390fd5b5f600e5f815480929190611e63906152c1565b9190505590505f600f5f815480929190611e7c906152c1565b9190505590505f611ea3611e9e898060a00190611e999190615314565b613c58565b613d4e565b9050604051806080016040528089602001358152602001896060016020810190611ecd91906153a0565b63ffffffff168152602001896080016020810190611eeb91906153a0565b63ffffffff168152602001898060a00190611f069190615314565b8080601f0160208091040260200160405190810160405280939291908181526020018383808284375f81840152601f19601f8201169050808301925050505050505081525060105f8581526020019081526020015f205f820151815f01556020820151816001015f6101000a81548163ffffffff021916908363ffffffff16021790555060408201518160010160046101000a81548163ffffffff021916908363ffffffff1602179055506060820151816002019081611fc69190615562565b509050503373ffffffffffffffffffffffffffffffffffffffff168860200135895f01357feb0e3652e0f44f417695e6e90f2f42c99b65cd7169074c5a654b16b9748c3a4e86868d6040016020810190612020919061565b565b8e606001602081019061203391906153a0565b8f608001602081019061204691906153a0565b89604051612059969594939291906156ce565b60405180910390a4829650505050505050919050565b60075f9054906101000a900467ffffffffffffffff1681565b5f612091613707565b5f60075f9054906101000a900467ffffffffffffffff169050336001436120b89190614ef0565b4030836040516020016120ce94939291906157d6565b604051602081830303815290604052805190602001205f1c91506001816120f59190615823565b60075f6101000a81548167ffffffffffffffff021916908367ffffffffffffffff1602179055505f5f67ffffffffffffffff8111156121375761213661456b565b5b6040519080825280602002602001820160405280156121655781602001602082028036833780820191505090505b50905060405180606001604052805f6bffffffffffffffffffffffff1681526020015f6bffffffffffffffffffffffff1681526020015f67ffffffffffffffff1681525060065f8581526020019081526020015f205f820151815f015f6101000a8154816bffffffffffffffffffffffff02191690836bffffffffffffffffffffffff1602179055506020820151815f01600c6101000a8154816bffffffffffffffffffffffff02191690836bffffffffffffffffffffffff1602179055506040820151815f0160186101000a81548167ffffffffffffffff021916908367ffffffffffffffff16021790555090505060405180606001604052803373ffffffffffffffffffffffffffffffffffffffff1681526020015f73ffffffffffffffffffffffffffffffffffffffff1681526020018281525060055f8581526020019081526020015f205f820151815f015f6101000a81548173ffffffffffffffffffffffffffffffffffffffff021916908373ffffffffffffffffffffffffffffffffffffffff1602179055506020820151816001015f6101000a81548173ffffffffffffffffffffffffffffffffffffffff021916908373ffffffffffffffffffffffffffffffffffffffff16021790555060408201518160020190805190602001906123539291906142eb565b5090505061236b836008613de690919063ffffffff16565b50827f1d3015d7ba850fa198dc7b1a3f5d42779313a681035f77c8c03764c61005518d3360405161239c91906149e7565b60405180910390a2505090565b6123b1613707565b60025f9054906101000a900473ffffffffffffffffffffffffffffffffffffffff1673ffffffffffffffffffffffffffffffffffffffff163373ffffffffffffffffffffffffffffffffffffffff1614612437576040517f44b0e3c300000000000000000000000000000000000000000000000000000000815260040160405180910390fd5b60208282905014612474576040517f8129bbcd00000000000000000000000000000000000000000000000000000000815260040160405180910390fd5b5f828281019061248491906148d9565b90506124c160055f8381526020019081526020015f205f015f9054906101000a900473ffffffffffffffffffffffffffffffffffffffff16613bf0565b5f60065f8381526020019081526020015f205f015f9054906101000a90046bffffffffffffffffffffffff166bffffffffffffffffffffffff1690508460065f8481526020019081526020015f205f015f8282829054906101000a90046bffffffffffffffffffffffff1661253691906150e1565b92506101000a8154816bffffffffffffffffffffffff02191690836bffffffffffffffffffffffff16021790555084600a5f8282829054906101000a90046bffffffffffffffffffffffff1661258c91906150e1565b92506101000a8154816bffffffffffffffffffffffff02191690836bffffffffffffffffffffffff160217905550817f1ced9348ff549fceab2ac57cd3a9de38edaaab274b725ee82c23e8fc8c4eec7a8287846125e99190614f64565b6040516125f7929190614dd9565b60405180910390a2505050505050565b61260f613a82565b5f60055f8381526020019081526020015f205f015f9054906101000a900473ffffffffffffffffffffffffffffffffffffffff16905061264e81613bf0565b6126588282613dfd565b5050565b60605f6126696008613f89565b90508084106126a4576040517f1390f2a100000000000000000000000000000000000000000000000000000000815260040160405180910390fd5b5f83856126b19190614f64565b9050818111806126c057505f84145b6126ca57806126cc565b815b90505f85826126db9190614ef0565b90508067ffffffffffffffff8111156126f7576126f661456b565b5b6040519080825280602002602001820160405280156127255781602001602082028036833780820191505090505b5093505f5f90505b8181101561277e5761275487826127449190614f64565b6008613f9c90919063ffffffff16565b85828151811061276757612766614e00565b5b60200260200101818152505080600101905061272d565b5050505092915050565b612790613707565b5f60055f8381526020019081526020015f205f015f9054906101000a900473ffffffffffffffffffffffffffffffffffffffff1690506127cf81613bf0565b3373ffffffffffffffffffffffffffffffffffffffff1660055f8481526020019081526020015f206001015f9054906101000a900473ffffffffffffffffffffffffffffffffffffffff1673ffffffffffffffffffffffffffffffffffffffff16146128a55760055f8381526020019081526020015f206001015f9054906101000a900473ffffffffffffffffffffffffffffffffffffffff166040517fd084e97500000000000000000000000000000000000000000000000000000000815260040161289c91906149e7565b60405180910390fd5b3360055f8481526020019081526020015f205f015f6101000a81548173ffffffffffffffffffffffffffffffffffffffff021916908373ffffffffffffffffffffffffffffffffffffffff1602179055505f60055f8481526020019081526020015f206001015f6101000a81548173ffffffffffffffffffffffffffffffffffffffff021916908373ffffffffffffffffffffffffffffffffffffffff160217905550817fd4114ab6e9af9f597c52041f32d62dc57c5c4e4c0d4427006069635e216c9386823360405161297a92919061585e565b60405180910390a25050565b8161299081613654565b612998613707565b5f60045f8473ffffffffffffffffffffffffffffffffffffffff1673ffffffffffffffffffffffffffffffffffffffff1681526020019081526020015f205f8581526020019081526020015f209050805f015f9054906101000a900460ff1615612a025750612b10565b5f60055f8681526020019081526020015f206002019050606461ffff16818054905003612a5b576040517f05a48e0f00000000000000000000000000000000000000000000000000000000815260040160405180910390fd5b6001825f015f6101000a81548160ff0219169083151502179055508084908060018154018082558091505060019003905f5260205f20015f9091909190916101000a81548173ffffffffffffffffffffffffffffffffffffffff021916908373ffffffffffffffffffffffffffffffffffffffff160217905550847f1e980d04aa7648e205713e5e8ea3808672ac163d10936d36f91b2c88ac1575e185604051612b0591906149e7565b60405180910390a250505b505050565b81612b1f81613654565b8282612b2b8282611b69565b612b6e5781816040517f79bfd401000000000000000000000000000000000000000000000000000000008152600401612b6592919061529a565b60405180910390fd5b612b76613707565b60045f8573ffffffffffffffffffffffffffffffffffffffff1673ffffffffffffffffffffffffffffffffffffffff1681526020019081526020015f205f8681526020019081526020015f205f015f9054906101000a900460ff16612c145784846040517f79bfd401000000000000000000000000000000000000000000000000000000008152600401612c0b92919061529a565b60405180910390fd5b5f60055f8781526020019081526020015f20600201805480602002602001604051908101604052809291908181526020018280548015612ca657602002820191905f5260205f20905b815f9054906101000a900473ffffffffffffffffffffffffffffffffffffffff1673ffffffffffffffffffffffffffffffffffffffff1681526020019060010190808311612c5d575b505050505090505f60018251612cbc9190614ef0565b90505f5f90505b8251811015612e0a578673ffffffffffffffffffffffffffffffffffffffff16838281518110612cf657612cf5614e00565b5b602002602001015173ffffffffffffffffffffffffffffffffffffffff1603612dff575f838381518110612d2d57612d2c614e00565b5b602002602001015190508060055f8b81526020019081526020015f206002018381548110612d5e57612d5d614e00565b5b905f5260205f20015f6101000a81548173ffffffffffffffffffffffffffffffffffffffff021916908373ffffffffffffffffffffffffffffffffffffffff16021790555060055f8a81526020019081526020015f20600201805480612dc757612dc6615885565b5b600190038181905f5260205f20015f6101000a81549073ffffffffffffffffffffffffffffffffffffffff0219169055905550612e0a565b806001019050612cc3565b505f60045f8873ffffffffffffffffffffffffffffffffffffffff1673ffffffffffffffffffffffffffffffffffffffff1681526020019081526020015f205f8981526020019081526020015f205f015f6101000a81548160ff021916908315150217905550867f32158c6058347c1601b2d12bc696ac6901d8a9a9aa3ba10c27ab0a983e8425a787604051612ea091906149e7565b60405180910390a250505050505050565b81612ebb81613654565b612ec3613707565b5f60055f8581526020019081526020015f2090508273ffffffffffffffffffffffffffffffffffffffff16816001015f9054906101000a900473ffffffffffffffffffffffffffffffffffffffff1673ffffffffffffffffffffffffffffffffffffffff1614612faa5782816001015f6101000a81548173ffffffffffffffffffffffffffffffffffffffff021916908373ffffffffffffffffffffffffffffffffffffffff160217905550837f21a4dad170a6bf476c31bbcf4a16628295b0e450672eec25d7c93308e05344a13385604051612fa192919061585e565b60405180910390a25b50505050565b5f5f5f5f606060055f8781526020019081526020015f205f015f9054906101000a900473ffffffffffffffffffffffffffffffffffffffff169150612ff482613bf0565b60065f8781526020019081526020015f205f015f9054906101000a90046bffffffffffffffffffffffff1660065f8881526020019081526020015f205f01600c9054906101000a90046bffffffffffffffffffffffff1660065f8981526020019081526020015f205f0160189054906101000a900467ffffffffffffffff168460055f8b81526020019081526020015f206002018080548060200260200160405190810160405280929190818152602001828054801561310657602002820191905f5260205f20905b815f9054906101000a900473ffffffffffffffffffffffffffffffffffffffff1673ffffffffffffffffffffffffffffffffffffffff16815260200190600101908083116130bd575b505050505090509450945094509450945091939590929450565b7f000000000000000000000000000000000000000000000000000000000000000081565b61314c613a82565b5f73ffffffffffffffffffffffffffffffffffffffff1660025f9054906101000a900473ffffffffffffffffffffffffffffffffffffffff1673ffffffffffffffffffffffffffffffffffffffff16036131d2576040517fc1f0c0a100000000000000000000000000000000000000000000000000000000815260040160405180910390fd5b5f60025f9054906101000a900473ffffffffffffffffffffffffffffffffffffffff1673ffffffffffffffffffffffffffffffffffffffff166370a08231306040518263ffffffff1660e01b815260040161322d91906149e7565b602060405180830381865afa158015613248573d5f5f3e3d5ffd5b505050506040513d601f19601f8201168201806040525081019061326c91906158c6565b90505f600a5f9054906101000a90046bffffffffffffffffffffffff166bffffffffffffffffffffffff169050818111156132e05780826040517fa99da3020000000000000000000000000000000000000000000000000000000081526004016132d7929190614dd9565b60405180910390fd5b81811015613404575f81836132f59190614ef0565b905060025f9054906101000a900473ffffffffffffffffffffffffffffffffffffffff1673ffffffffffffffffffffffffffffffffffffffff1663a9059cbb85836040518363ffffffff1660e01b81526004016133539291906158f1565b6020604051808303815f875af115801561336f573d5f5f3e3d5ffd5b505050506040513d601f19601f8201168201806040525081019061339391906151b0565b6133c9576040517f7c07fc4c00000000000000000000000000000000000000000000000000000000815260040160405180910390fd5b7f59bfc682b673f8cbf945f1e454df9334834abf7dfe7f92237ca29ecb9b43660084826040516133fa9291906158f1565b60405180910390a1505b505050565b613411613a82565b61341a81613fb3565b50565b5f60065f8381526020019081526020015f2090508215613546575f815f01600c9054906101000a90046bffffffffffffffffffffffff169050846bffffffffffffffffffffffff16816bffffffffffffffffffffffff1610156134ac576040517ff4d678b800000000000000000000000000000000000000000000000000000000815260040160405180910390fd5b84816134b89190615120565b825f01600c6101000a8154816bffffffffffffffffffffffff02191690836bffffffffffffffffffffffff16021790555084600b600c8282829054906101000a90046bffffffffffffffffffffffff1661351291906150e1565b92506101000a8154816bffffffffffffffffffffffff02191690836bffffffffffffffffffffffff1602179055505061364e565b5f815f015f9054906101000a90046bffffffffffffffffffffffff169050846bffffffffffffffffffffffff16816bffffffffffffffffffffffff1610156135ba576040517ff4d678b800000000000000000000000000000000000000000000000000000000815260040160405180910390fd5b84816135c69190615120565b825f015f6101000a8154816bffffffffffffffffffffffff02191690836bffffffffffffffffffffffff16021790555084600b5f8282829054906101000a90046bffffffffffffffffffffffff1661361e91906150e1565b92506101000a8154816bffffffffffffffffffffffff02191690836bffffffffffffffffffffffff160217905550505b50505050565b5f60055f8381526020019081526020015f205f015f9054906101000a900473ffffffffffffffffffffffffffffffffffffffff16905061369381613bf0565b8073ffffffffffffffffffffffffffffffffffffffff163373ffffffffffffffffffffffffffffffffffffffff161461370357806040517fd8a3fb520000000000000000000000000000000000000000000000000000000081526004016136fa91906149e7565b60405180910390fd5b5050565b600c5f0160069054906101000a900460ff1615613750576040517fed3ba6a600000000000000000000000000000000000000000000000000000000815260040160405180910390fd5b565b5f5f5f60055f8581526020019081526020015f20600201905060065f8581526020019081526020015f205f015f9054906101000a90046bffffffffffffffffffffffff16925060065f8581526020019081526020015f205f01600c9054906101000a90046bffffffffffffffffffffffff1691505f818054905090505f5f90505b818110156138b55760045f8483815481106137f1576137f0614e00565b5b905f5260205f20015f9054906101000a900473ffffffffffffffffffffffffffffffffffffffff1673ffffffffffffffffffffffffffffffffffffffff1673ffffffffffffffffffffffffffffffffffffffff1681526020019081526020015f205f8781526020019081526020015f205f5f82015f6101000a81549060ff02191690555f820160016101000a81549067ffffffffffffffff02191690555f820160096101000a81549067ffffffffffffffff021916905550508060010190506137d3565b5060055f8681526020019081526020015f205f5f82015f6101000a81549073ffffffffffffffffffffffffffffffffffffffff0219169055600182015f6101000a81549073ffffffffffffffffffffffffffffffffffffffff0219169055600282015f6139229190614372565b505060065f8681526020019081526020015f205f5f82015f6101000a8154906bffffffffffffffffffffffff02191690555f8201600c6101000a8154906bffffffffffffffffffffffff02191690555f820160186101000a81549067ffffffffffffffff021916905550506139a18560086140de90919063ffffffff16565b505f846bffffffffffffffffffffffff1614613a0e5783600a5f8282829054906101000a90046bffffffffffffffffffffffff166139df9190615120565b92506101000a8154816bffffffffffffffffffffffff02191690836bffffffffffffffffffffffff1602179055505b5f836bffffffffffffffffffffffff1614613a7b5782600a600c8282829054906101000a90046bffffffffffffffffffffffff16613a4c9190615120565b92506101000a8154816bffffffffffffffffffffffff02191690836bffffffffffffffffffffffff1602179055505b5050915091565b5f5f9054906101000a900473ffffffffffffffffffffffffffffffffffffffff1673ffffffffffffffffffffffffffffffffffffffff163373ffffffffffffffffffffffffffffffffffffffff1614613b10576040517f08c379a0000000000000000000000000000000000000000000000000000000008152600401613b0790615962565b60405180910390fd5b565b80613b49576040517ff4d678b800000000000000000000000000000000000000000000000000000000815260040160405180910390fd5b50565b5f8273ffffffffffffffffffffffffffffffffffffffff1682604051613b7190615068565b5f6040518083038185875af1925050503d805f8114613bab576040519150601f19603f3d011682016040523d82523d5f602084013e613bb0565b606091505b5050905080613beb576040517f950b247900000000000000000000000000000000000000000000000000000000815260040160405180910390fd5b505050565b5f73ffffffffffffffffffffffffffffffffffffffff168173ffffffffffffffffffffffffffffffffffffffff1603613c55576040517f1f6a65b600000000000000000000000000000000000000000000000000000000815260040160405180910390fd5b50565b613c60614390565b5f8383905003613c825760405180602001604052805f15158152509050613d48565b7f92fd13387c7fe7befbc38d303d6468778fb9731bc4583f17d92989c6fcfdeaaa7bffffffffffffffffffffffffffffffffffffffffffffffffffffffff1916838390613ccf91906159b5565b7bffffffffffffffffffffffffffffffffffffffffffffffffffffffff191614613d25576040517f5247fdce00000000000000000000000000000000000000000000000000000000815260040160405180910390fd5b82826004908092613d3893929190615a1b565b810190613d459190615aa6565b90505b92915050565b60607f92fd13387c7fe7befbc38d303d6468778fb9731bc4583f17d92989c6fcfdeaaa82604051602401613d829190615afa565b604051602081830303815290604052907bffffffffffffffffffffffffffffffffffffffffffffffffffffffff19166020820180517bffffffffffffffffffffffffffffffffffffffffffffffffffffffff83818316178352505050509050919050565b5f613df5835f01835f1b6140f5565b905092915050565b5f5f613e0884613752565b915091505f73ffffffffffffffffffffffffffffffffffffffff1660025f9054906101000a900473ffffffffffffffffffffffffffffffffffffffff1673ffffffffffffffffffffffffffffffffffffffff1614158015613e7757505f826bffffffffffffffffffffffff1614155b15613f2f57613f2e60025f9054906101000a900473ffffffffffffffffffffffffffffffffffffffff1673ffffffffffffffffffffffffffffffffffffffff1663a9059cbb85856bffffffffffffffffffffffff166040518363ffffffff1660e01b8152600401613ee99291906158f1565b6020604051808303815f875af1158015613f05573d5f5f3e3d5ffd5b505050506040513d601f19601f82011682018060405250810190613f2991906151b0565b613b12565b5b613f4783826bffffffffffffffffffffffff16613b4c565b837f8c74ce8b8cf87f5eb001275c8be27eb34ea2b62bfab6814fcc62192bb63e81c4848484604051613f7b939291906150ac565b60405180910390a250505050565b5f613f95825f0161415c565b9050919050565b5f613fa9835f018361416b565b5f1c905092915050565b3373ffffffffffffffffffffffffffffffffffffffff168173ffffffffffffffffffffffffffffffffffffffff1603614021576040517f08c379a000000000000000000000000000000000000000000000000000000000815260040161401890615b5d565b60405180910390fd5b8060015f6101000a81548173ffffffffffffffffffffffffffffffffffffffff021916908373ffffffffffffffffffffffffffffffffffffffff1602179055508073ffffffffffffffffffffffffffffffffffffffff165f5f9054906101000a900473ffffffffffffffffffffffffffffffffffffffff1673ffffffffffffffffffffffffffffffffffffffff167fed8889f560326eb138920d842192f0eb3dd22b4f139c87a2c57538e05bae127860405160405180910390a350565b5f6140ed835f01835f1b614192565b905092915050565b5f614100838361428e565b61415257825f0182908060018154018082558091505060019003905f5260205f20015f9091909190915055825f0180549050836001015f8481526020019081526020015f208190555060019050614156565b5f90505b92915050565b5f815f01805490509050919050565b5f825f01828154811061418157614180614e00565b5b905f5260205f200154905092915050565b5f5f836001015f8481526020019081526020015f205490505f8114614283575f6001826141bf9190614ef0565b90505f6001865f01805490506141d59190614ef0565b905081811461423b575f865f0182815481106141f4576141f3614e00565b5b905f5260205f200154905080875f01848154811061421557614214614e00565b5b905f5260205f20018190555083876001015f8381526020019081526020015f2081905550505b855f0180548061424e5761424d615885565b5b600190038181905f5260205f20015f90559055856001015f8681526020019081526020015f205f905560019350505050614288565b5f9150505b92915050565b5f5f836001015f8481526020019081526020015f20541415905092915050565b5080546142ba90614da9565b5f825580601f106142cb57506142e8565b601f0160209004905f5260205f20908101906142e791906143a4565b5b50565b828054828255905f5260205f20908101928215614361579160200282015b82811115614360578251825f6101000a81548173ffffffffffffffffffffffffffffffffffffffff021916908373ffffffffffffffffffffffffffffffffffffffff16021790555091602001919060010190614309565b5b50905061436e91906143a4565b5090565b5080545f8255905f5260205f209081019061438d91906143a4565b50565b60405180602001604052805f151581525090565b5b808211156143bb575f815f9055506001016143a5565b5090565b5f61ffff82169050919050565b6143d5816143bf565b82525050565b5f63ffffffff82169050919050565b6143f3816143db565b82525050565b5f8115159050919050565b61440d816143f9565b82525050565b5f60ff82169050919050565b61442881614413565b82525050565b5f610120820190506144425f83018c6143cc565b61444f602083018b6143ea565b61445c604083018a614404565b61446960608301896143ea565b61447660808301886143ea565b61448360a08301876143ea565b61449060c08301866143ea565b61449d60e083018561441f565b6144ab61010083018461441f565b9a9950505050505050505050565b5f604051905090565b5f5ffd5b5f5ffd5b5f819050919050565b6144dc816144ca565b81146144e6575f5ffd5b50565b5f813590506144f7816144d3565b92915050565b5f73ffffffffffffffffffffffffffffffffffffffff82169050919050565b5f614526826144fd565b9050919050565b6145368161451c565b8114614540575f5ffd5b50565b5f813590506145518161452d565b92915050565b5f5ffd5b5f601f19601f8301169050919050565b7f4e487b71000000000000000000000000000000000000000000000000000000005f52604160045260245ffd5b6145a18261455b565b810181811067ffffffffffffffff821117156145c0576145bf61456b565b5b80604052505050565b5f6145d26144b9565b90506145de8282614598565b919050565b5f67ffffffffffffffff8211156145fd576145fc61456b565b5b602082029050602081019050919050565b5f5ffd5b5f61462461461f846145e3565b6145c9565b905080838252602082019050602084028301858111156146475761464661460e565b5b835b81811015614670578061465c88826144e9565b845260208401935050602081019050614649565b5050509392505050565b5f82601f83011261468e5761468d614557565b5b813561469e848260208601614612565b91505092915050565b5f5f5f606084860312156146be576146bd6144c2565b5b5f6146cb868287016144e9565b93505060206146dc86828701614543565b925050604084013567ffffffffffffffff8111156146fd576146fc6144c6565b5b6147098682870161467a565b9150509250925092565b5f5f60408385031215614729576147286144c2565b5b5f614736858286016144e9565b925050602061474785828601614543565b9150509250929050565b5f5f60408385031215614767576147666144c2565b5b5f614774858286016144e9565b9250506020614785858286016144e9565b9150509250929050565b5f819050919050565b6147a18161478f565b82525050565b5f6020820190506147ba5f830184614798565b92915050565b5f6bffffffffffffffffffffffff82169050919050565b6147e0816147c0565b82525050565b5f6020820190506147f95f8301846147d7565b92915050565b5f819050919050565b5f61482261481d614818846144fd565b6147ff565b6144fd565b9050919050565b5f61483382614808565b9050919050565b5f61484482614829565b9050919050565b6148548161483a565b82525050565b5f60208201905061486d5f83018461484b565b92915050565b5f61487d826144fd565b9050919050565b61488d81614873565b8114614897575f5ffd5b50565b5f813590506148a881614884565b92915050565b5f602082840312156148c3576148c26144c2565b5b5f6148d08482850161489a565b91505092915050565b5f602082840312156148ee576148ed6144c2565b5b5f6148fb848285016144e9565b91505092915050565b5f6020820190506149175f830184614404565b92915050565b5f60208284031215614932576149316144c2565b5b5f61493f84828501614543565b91505092915050565b5f60208201905061495b5f8301846143cc565b92915050565b5f5f60408385031215614977576149766144c2565b5b5f61498485828601614543565b925050602061499585828601614543565b9150509250929050565b5f6149a982614829565b9050919050565b6149b98161499f565b82525050565b5f6020820190506149d25f8301846149b0565b92915050565b6149e18161451c565b82525050565b5f6020820190506149fa5f8301846149d8565b92915050565b5f5ffd5b5f60c08284031215614a1957614a18614a00565b5b81905092915050565b5f60208284031215614a3757614a366144c2565b5b5f82013567ffffffffffffffff811115614a5457614a536144c6565b5b614a6084828501614a04565b91505092915050565b614a72816144ca565b82525050565b5f602082019050614a8b5f830184614a69565b92915050565b5f67ffffffffffffffff82169050919050565b614aad81614a91565b82525050565b5f602082019050614ac65f830184614aa4565b92915050565b5f5ffd5b5f5f83601f840112614ae557614ae4614557565b5b8235905067ffffffffffffffff811115614b0257614b01614acc565b5b602083019150836001820283011115614b1e57614b1d61460e565b5b9250929050565b5f5f5f5f60608587031215614b3d57614b3c6144c2565b5b5f614b4a87828801614543565b9450506020614b5b878288016144e9565b935050604085013567ffffffffffffffff811115614b7c57614b7b6144c6565b5b614b8887828801614ad0565b925092505092959194509250565b5f81519050919050565b5f82825260208201905092915050565b5f819050602082019050919050565b614bc8816144ca565b82525050565b5f614bd98383614bbf565b60208301905092915050565b5f602082019050919050565b5f614bfb82614b96565b614c058185614ba0565b9350614c1083614bb0565b805f5b83811015614c40578151614c278882614bce565b9750614c3283614be5565b925050600181019050614c13565b5085935050505092915050565b5f6020820190508181035f830152614c658184614bf1565b905092915050565b5f81519050919050565b5f82825260208201905092915050565b5f819050602082019050919050565b614c9f8161451c565b82525050565b5f614cb08383614c96565b60208301905092915050565b5f602082019050919050565b5f614cd282614c6d565b614cdc8185614c77565b9350614ce783614c87565b805f5b83811015614d17578151614cfe8882614ca5565b9750614d0983614cbc565b925050600181019050614cea565b5085935050505092915050565b5f60a082019050614d375f8301886147d7565b614d4460208301876147d7565b614d516040830186614aa4565b614d5e60608301856149d8565b8181036080830152614d708184614cc8565b90509695505050505050565b7f4e487b71000000000000000000000000000000000000000000000000000000005f52602260045260245ffd5b5f6002820490506001821680614dc057607f821691505b602082108103614dd357614dd2614d7c565b5b50919050565b5f604082019050614dec5f830185614a69565b614df96020830184614a69565b9392505050565b7f4e487b71000000000000000000000000000000000000000000000000000000005f52603260045260245ffd5b5f604082019050614e405f830185614a69565b8181036020830152614e528184614bf1565b90509392505050565b5f81519050919050565b5f81905092915050565b8281835e5f83830152505050565b5f614e8782614e5b565b614e918185614e65565b9350614ea1818560208601614e6f565b80840191505092915050565b5f614eb88284614e7d565b915081905092915050565b7f4e487b71000000000000000000000000000000000000000000000000000000005f52601160045260245ffd5b5f614efa826144ca565b9150614f05836144ca565b9250828203905081811115614f1d57614f1c614ec3565b5b92915050565b5f614f2d826144ca565b9150614f38836144ca565b9250828202614f46816144ca565b91508282048414831517614f5d57614f5c614ec3565b5b5092915050565b5f614f6e826144ca565b9150614f79836144ca565b9250828201905080821115614f9157614f90614ec3565b5b92915050565b7f4e487b71000000000000000000000000000000000000000000000000000000005f52601260045260245ffd5b5f614fce826144ca565b9150614fd9836144ca565b925082614fe957614fe8614f97565b5b828204905092915050565b5f60a0820190506150075f830188614a69565b61501460208301876147d7565b6150216040830186614404565b61502e6060830185614404565b61503b6080830184614404565b9695505050505050565b50565b5f6150535f83614e65565b915061505e82615045565b5f82019050919050565b5f61507282615048565b9150819050919050565b5f61509661509161508c846147c0565b6147ff565b6144ca565b9050919050565b6150a68161507c565b82525050565b5f6060820190506150bf5f8301866149d8565b6150cc602083018561509d565b6150d9604083018461509d565b949350505050565b5f6150eb826147c0565b91506150f6836147c0565b925082820190506bffffffffffffffffffffffff81111561511a57615119614ec3565b5b92915050565b5f61512a826147c0565b9150615135836147c0565b925082820390506bffffffffffffffffffffffff81111561515957615158614ec3565b5b92915050565b5f6040820190506151725f8301856149d8565b61517f602083018461509d565b9392505050565b61518f816143f9565b8114615199575f5ffd5b50565b5f815190506151aa81615186565b92915050565b5f602082840312156151c5576151c46144c2565b5b5f6151d28482850161519c565b91505092915050565b5f82825260208201905092915050565b7f4d7573742062652070726f706f736564206f776e6572000000000000000000005f82015250565b5f61521f6016836151db565b915061522a826151eb565b602082019050919050565b5f6020820190508181035f83015261524c81615213565b9050919050565b5f61525d82614829565b9050919050565b61526d81615253565b82525050565b5f6040820190506152865f830185615264565b6152936020830184614a69565b9392505050565b5f6040820190506152ad5f830185614a69565b6152ba60208301846149d8565b9392505050565b5f6152cb826144ca565b91507fffffffffffffffffffffffffffffffffffffffffffffffffffffffffffffffff82036152fd576152fc614ec3565b5b600182019050919050565b5f5ffd5b5f5ffd5b5f5ffd5b5f5f833560016020038436030381126153305761532f615308565b5b80840192508235915067ffffffffffffffff8211156153525761535161530c565b5b60208301925060018202360383131561536e5761536d615310565b5b509250929050565b61537f816143db565b8114615389575f5ffd5b50565b5f8135905061539a81615376565b92915050565b5f602082840312156153b5576153b46144c2565b5b5f6153c28482850161538c565b91505092915050565b5f819050815f5260205f209050919050565b5f6020601f8301049050919050565b5f82821b905092915050565b5f600883026154277fffffffffffffffffffffffffffffffffffffffffffffffffffffffffffffffff826153ec565b61543186836153ec565b95508019841693508086168417925050509392505050565b5f61546361545e615459846144ca565b6147ff565b6144ca565b9050919050565b5f819050919050565b61547c83615449565b6154906154888261546a565b8484546153f8565b825550505050565b5f5f905090565b6154a7615498565b6154b2818484615473565b505050565b5b818110156154d5576154ca5f8261549f565b6001810190506154b8565b5050565b601f82111561551a576154eb816153cb565b6154f4846153dd565b81016020851015615503578190505b61551761550f856153dd565b8301826154b7565b50505b505050565b5f82821c905092915050565b5f61553a5f198460080261551f565b1980831691505092915050565b5f615552838361552b565b9150826002028217905092915050565b61556b82614e5b565b67ffffffffffffffff8111156155845761558361456b565b5b61558e8254614da9565b6155998282856154d9565b5f60209050601f8311600181146155ca575f84156155b8578287015190505b6155c28582615547565b865550615629565b601f1984166155d8866153cb565b5f5b828110156155ff578489015182556001820191506020850194506020810190506155da565b8683101561561c5784890151615618601f89168261552b565b8355505b6001600288020188555050505b505050505050565b61563a816143bf565b8114615644575f5ffd5b50565b5f8135905061565581615631565b92915050565b5f602082840312156156705761566f6144c2565b5b5f61567d84828501615647565b91505092915050565b5f82825260208201905092915050565b5f6156a082614e5b565b6156aa8185615686565b93506156ba818560208601614e6f565b6156c38161455b565b840191505092915050565b5f60c0820190506156e15f830189614a69565b6156ee6020830188614a69565b6156fb60408301876143cc565b61570860608301866143ea565b61571560808301856143ea565b81810360a08301526157278184615696565b9050979650505050505050565b5f8160601b9050919050565b5f61574a82615734565b9050919050565b5f61575b82615740565b9050919050565b61577361576e8261451c565b615751565b82525050565b5f819050919050565b5f819050919050565b61579c61579782615779565b615782565b82525050565b5f8160c01b9050919050565b5f6157b8826157a2565b9050919050565b6157d06157cb82614a91565b6157ae565b82525050565b5f6157e18287615762565b6014820191506157f1828661578b565b6020820191506158018285615762565b60148201915061581182846157bf565b60088201915081905095945050505050565b5f61582d82614a91565b915061583883614a91565b9250828201905067ffffffffffffffff81111561585857615857614ec3565b5b92915050565b5f6040820190506158715f8301856149d8565b61587e60208301846149d8565b9392505050565b7f4e487b71000000000000000000000000000000000000000000000000000000005f52603160045260245ffd5b5f815190506158c0816144d3565b92915050565b5f602082840312156158db576158da6144c2565b5b5f6158e8848285016158b2565b91505092915050565b5f6040820190506159045f8301856149d8565b6159116020830184614a69565b9392505050565b7f4f6e6c792063616c6c61626c65206279206f776e6572000000000000000000005f82015250565b5f61594c6016836151db565b915061595782615918565b602082019050919050565b5f6020820190508181035f83015261597981615940565b9050919050565b5f82905092915050565b5f7fffffffff0000000000000000000000000000000000000000000000000000000082169050919050565b5f6159c08383615980565b826159cb813561598a565b92506004821015615a0b57615a067fffffffff00000000000000000000000000000000000000000000000000000000836004036008026153ec565b831692505b505092915050565b5f5ffd5b5f5ffd5b5f5f85851115615a2e57615a2d615a13565b5b83861115615a3f57615a3e615a17565b5b6001850283019150848603905094509492505050565b5f5ffd5b5f81359050615a6781615186565b92915050565b5f60208284031215615a8257615a81615a55565b5b615a8c60206145c9565b90505f615a9b84828501615a59565b5f8301525092915050565b5f60208284031215615abb57615aba6144c2565b5b5f615ac884828501615a6d565b91505092915050565b615ada816143f9565b82525050565b602082015f820151615af45f850182615ad1565b50505050565b5f602082019050615b0d5f830184615ae0565b92915050565b7f43616e6e6f74207472616e7366657220746f2073656c660000000000000000005f82015250565b5f615b476017836151db565b9150615b5282615b13565b602082019050919050565b5f6020820190508181035f830152615b7481615b3b565b905091905056fea2646970667358221220d312e540eaa842d2e543fa52e5cdbe388a878ecedbdc7cb445334241d710aaf664736f6c634300081c0033","linkReferences":{}},"methodIdentifiers":{"LINK()":"1b6b6d23","LINK_NATIVE_FEED()":"72e9d565","MAX_CONSUMERS()":"64d51a2a","acceptOwnership()":"79ba5097","acceptSubscriptionOwnerTransfer(uint256)":"b2a7cac5","addConsumer(uint256,address)":"bec4c08c","cancelSubscription(uint256,address)":"0ae09540","consumerIsAdded(uint256,address)":"953e9c75","createSubscription()":"a21a23e4","fulfillRandomWords(uint256,address)":"808974ff","fulfillRandomWordsWithOverride(uint256,address,uint256[])":"08e3898e","fundSubscription(uint256,uint256)":"115e3c0d","fundSubscriptionWithNative(uint256)":"95b55cfc","getActiveSubscriptionIds(uint256,uint256)":"aefb212f","getSubscription(uint256)":"dc311dd3","i_base_fee()":"1eebc117","i_gas_price()":"dcab3dcf","i_wei_per_unit_link()":"13478329","onTokenTransfer(address,uint256,bytes)":"a4c0ed36","owner()":"8da5cb5b","ownerCancelSubscription(uint256)":"aa433aff","pendingRequestExists(uint256)":"41af6c87","recoverFunds(address)":"e72f6e30","recoverNativeFunds(address)":"8402595e","removeConsumer(uint256,address)":"cb631797","requestRandomWords((bytes32,uint256,uint16,uint32,uint32,bytes))":"9b1c385e","requestSubscriptionOwnerTransfer(uint256,address)":"dac83d29","s_config()":"088070f5","s_currentSubNonce()":"9d40a6fd","s_totalBalance()":"86fe91c7","s_totalNativeBalance()":"18e3dd27","setConfig()":"8b673e7a","setLINKAndLINKNativeFeed(address,address)":"65982744","transferOwnership(address)":"f2fde38b","withdraw(address)":"51cff8d9","withdrawNative(address)":"2f622e6b"},"id":13}